:020000040800F2
:10000000E806002079020008FF1B0008C31600085C
:10001000FD1B00087F030008DF200008000000002F
:10002000000000000000000000000000251F000884
:100030008103000800000000011C0008271F0008C1
:10004000930200089302000893020008930200083C
:10005000930200089302000893020008930200082C
:10006000930200089302000893020008930200081C
:10007000930200089302000893020008930200080C
:100080009302000800000000930200089302000899
:1000900093020008930200089302000893020008EC
:1000A00093020008930200089302000893020008DC
:1000B000A91F000893020008930200089302000899
:1000C00093020008930200089302000893020008BC
:1000D00093020008930200089302000893020008AC
:1000E000930200089302000893020008930200089C
:1000F0009302000893020008930200080000000029
:1001000000000000930200080000000093020008B5
:100110009302000800000000930200089302000808
:10012000930200089302000893020008930200085B
:100130009302000800000000000000009302000885
:100140009302000893020008000000000000000075
:10015000000000000000000000000000000000009F
:1001600000000000000000000000000093020008F2
:1001700093020008000000000000000000000000E2
:1001800000000000930200080000000000000000D2
:10019000000000000000000000000000000000005F
:1001A0000000000000000000191F00089302000872
:1001B0009302000893020008930200080000000068
:1001C0000000000093020008000000000000000092
:1001D000930200089302000800F002F800F03CF8D7
:1001E0000AA090E8000C82448344AAF10107DA4592
:1001F00001D100F031F8AFF2090EBAE80F0013F0A8
:10020000010F18BFFB1A43F0010318472023000019
:1002100040230000103A24BF78C878C1FAD85207AA
:1002200024BF30C830C144BF04680C607047000070
:100230000023002400250026103A28BF78C1FBD8EF
:10024000520728BF30C148BF0B6070471FB501F08F
:1002500092FF1FBD10B510BD00F058F81146FFF712
:10026000F5FF01F07BFF00F076F803B4FFF7F2FF33
:1002700003BC00F07DF800000948804709480047AA
:10028000FEE7FEE7FEE7FEE7FEE7FEE7FEE7FEE746
:10029000FEE7FEE704480549054A064B70470000A3
:1002A000991F0008D9010008E8000020E806002096
:1002B000E8020020E80200204FF0000200B51346DB
:1002C00094469646203922BFA0E80C50A0E80C5076
:1002D000B1F12001BFF4F7AF090728BFA0E80C5027
:1002E00048BF0CC05DF804EB890028BF40F8042B20
:1002F00008BF704748BF20F8022B11F0804F18BF8D
:1003000000F8012B7047704770477047754600F042
:100310002BF8AE4605006946534620F00700854697
:1003200018B020B5FFF7B6FFBDE820404FF000063B
:100330004FF000074FF000084FF0000B21F00701CD
:10034000AC46ACE8C009ACE8C009ACE8C009ACE810
:10035000C0098D46704710B50446AFF300802046B3
:10036000BDE81040FFF781BF0048704788000020BB
:1003700001491820ABBEFEE7260002007047FEE7E9
:100380007047002240F6B83306E00021491C89B2CC
:100390009942FBD3521C92B28242F6D3704772B696
:1003A000FEE7000070B5044600F038F90546601C11
:1003B00002D004484068044400F030F9401BA042D9
:1003C000FAD370BD000000202DE9F04FDFF8209235
:1003D000002301260324A9F1040B85B00F2709F19E
:1003E000040AABF1040EFAE006FA03F52A407CD0C9
:1003F00091F804C00CF0030CBCF1010F02D0BCF169
:10040000020F26D1D0F808C0CDF800C04FEA430C47
:1004100004FA0CF8CDF810C0DDF800C02CEA080C86
:10042000CDF800C0D1F80C80DDF810C008FA0CF847
:10043000DDF800C048EA0C08C0F80880D0F804C015
:100440002CEA050C0D79C5F300159D4045EA0C0515
:1004500045600D79ED43AD070ED0C5684FEA4308FE
:1004600004FA08FC25EA0C05D1F808C00CFA08FCCF
:100470004CEA050CC0F80CC00D7905F00305022DFF
:1004800016D1DD0800EB850CCDF808C0DCF8208023
:100490005D074FEAD56C07FA0CF528EA05080D69E7
:1004A00005FA0CF5DDF808C045EA0805CCF820503F
:1004B00005684FEA430CCDF808C004FA0CFC25EAA5
:1004C0000C0591F804C00CF00308DDF808C008FA28
:1004D0000CF848EA0508C0F800804D6815F4403F64
:1004E0007CD0444DD5F860C000E077E04CF0010CC2
:1004F000C5F860C02D6E23F0030C05F001050095D2
:100500003D4D65440295AD684FEA837C4FEA1C7807
:1005100007FA08FC25EA0C05B0F1904F06D0DFF889
:10052000DCC0604505D14FF0010C20E04FF0000C1D
:100530001DE0DFF8CCC0604502D14FF0020C16E0A0
:10054000DFF8C0C0604502D14FF0030C0FE0DFF8C8
:10055000B8C0604502D14FF0040C08E0DFF8ACC031
:10056000604502D14FF0050C01E04FF0060C0CFA8B
:1005700008FC4CEA050C029DC5F808C0D9F80050EB
:10058000CC46D1F8048095435FEAC82800D51543CE
:10059000CCF80050DAF80050D446D1F804809543E6
:1005A0005FEA882800D51543CCF80050DBF80050EE
:1005B000DC46D1F8048095435FEA883800D51543BE
:1005C000CCF80050DEF80050F446D1F80480954392
:1005D0005FEAC83800D51543CCF800505B1C0A68A8
:1005E00032FA03F57FF400AF05B0BDE8F08F0000EC
:1005F00008040140001002400000014000040048CF
:1006000000080048000C0048001000480014004892
:100610000AB18161704781627047000001488068BB
:1006200070470000000000200248816842681144C1
:10063000816070470000002010B50024032000F006
:1006400073F80F2000F008F808B1012401E000F071
:1006500025F8204610BD000070B50E4E054600245A
:10066000706898B14FF47A71B1FBF0F00A490968EB
:10067000B1FBF0F000F0B7FD40B9102D06D200221A
:100680002946501E00F030F8356000E00124204675
:1006900070BD0000000000200C0000200A4882B05D
:1006A000016E41F001010166016E01F0010100914E
:1006B000816D41F080518165806D00F08050009027
:1006C00002B000F0A1B8000000100240002809DBD1
:1006D00000F01F02012191404009800000F1E0205C
:1006E000C0F8001170470000F0B40E4B1B680C46B8
:1006F000C3F30223C3F10705042D00D90425191DF6
:10070000072901D2002300E0DB1E012606FA05F1CD
:10071000491E214099409E40761E16403143F0BC50
:1007200001F0DEBC0CED00E0064900F007020868AD
:100730004FF6FF03184040EA0220034A10430860C6
:10074000704700000CED00E00000FA052B492C4B2F
:100750000A6832214A432B4940B1B0F5007F08684E
:1007600029D020F4C06040F480602CE00868C0F319
:100770004120022804D051F8800F20F4807022E03C
:10078000D1F8800020F48070C1F88000086820F45F
:10079000C06040F400700860B2FBF3F0401C00E061
:1007A000401E4A69520501D50028F9D14869400523
:1007B0000AD503207047C0F34120022806D051F823
:1007C000800F40F48070086000207047D1F88000EE
:1007D00040F48070C1F88000086820F4C06040F4E4
:1007E00000700860B2FBF3F0401C00E0401E4A6954
:1007F0005205DBD50028F9D1D8E700000C00002015
:1008000040420F00007000400248816841F480417E
:1008100081607047007000402DE9F843044600688D
:1008200000269D4D00035ED5A86D0027C00008D4AA
:10083000A86D40F08050A865A86D012700F0805099
:100840000090DFF85892D9F8001041F48071C9F88F
:100850000010FFF7E3FE804606E000BFFFF7DEFE74
:10086000A0EB080002282BD8D9F80000C005F5D568
:10087000D5F8900010F4407014D0216C814211D052
:10088000D5F89000D5F8901020F4407041F48031F4
:10089000C5F89010D5F8901021F48031C5F890106B
:1008A000C5F89000C00711D0FFF7B8FE804641F2AE
:1008B000883907E0FFF7B2FEA0EB0801494501D9EE
:1008C00003260BE0D5F890008007F3D5D5F890000B
:1008D000216C20F440700843C5F890001FB1A86D4A
:1008E00020F08050A8652078C00707D0D5F8880090
:1008F000616820F003000843C5F88800207880076D
:1009000007D5D5F88800A16820F00C000843C5F889
:1009100088002078400707D5D5F88800E16820F0E6
:1009200030000843C5F888002078000707D5D5F8BF
:100930008800216920F0C0000843C5F888002078AD
:10094000800607D5D5F88800616920F44060084327
:10095000C5F888002078400607D5D5F88800A16939
:1009600020F440500843C5F888002078000607D5D9
:10097000D5F88800E16920F440400843C5F88800B4
:100980002088C00507D5D5F88800216A20F44030BA
:100990000843C5F888002088800507D5D5F8880069
:1009A000616A20F440200843C5F88800208840058B
:1009B0000FD5D5F88800A16A20F440100843C5F887
:1009C0008800A06AB0F5801F03D1E86840F4801069
:1009D000E860208800050FD5D5F88800E16A20F48A
:1009E00040000843C5F88800E06AB0F5800F03D1E5
:1009F000E86840F48010E8602088C0040FD5D5F87E
:100A00008800216B20F040700843C5F88800206BF7
:100A1000B0F1807F03D1E86840F48010E86020885E
:100A20004FF0006180040ED5D5F88800626B20F08D
:100A300040601043C5F88800606B884203D1E868C5
:100A400040F48010E860208840040ED5D5F8880076
:100A5000A26B20F040601043C5F88800A06B88426C
:100A600003D1E86840F48010E860208800040FD5C6
:100A7000D5F88800E16B20F040500843C5F88800A5
:100A8000E06BB0F1805F03D1E86840F48030E8604B
:100A90003046BDE8F88300000010024000700040BE
:100AA0002DE9F0470E4605004FF0000725D0DFF88E
:100AB000AC81D8F8000000F00F00B0420CD2D8F89A
:100AC000001021F00F013143C8F80010D8F80000E1
:100AD00000F00F00B04210D12968614CC80741F204
:100AE000883A5AD06868DFF87C91032808D0022839
:100AF00020682DD0400500282CDB0120BDE8F087C0
:100B000020688001F9D5E06800F00302E068C0F3D6
:100B10000310401C032A19D0534A00BFB2FBF0F067
:100B2000E268C2F306225043E268C2F34162521CFB
:100B30005200B0FBF2F0484517D9A06810F0F00F52
:100B40000CD0880711D5A86840B10EE0474AE5E708
:100B50008003D0E700F092F8484506D9A06820F05D
:100B6000F00040F08000A0608027A068696820F055
:100B700003000843A060FFF751FD814606E000BF77
:100B8000FFF74CFDA0EB090151453AD8A068696810
:100B900000F00C00B0EB810FF2D12868810714D56A
:100BA000400703D5A06840F4E060A0602878000703
:100BB00005D5A06820F4605040F4E060A060A06813
:100BC000A96820F0F000084304E0802F03D1A0685A
:100BD00020F0F000A060D8F80010404601F00F01AE
:100BE000B14216D9016821F00F0131430160FFF7CE
:100BF00015FD074607E000BFFFF710FDC11B51457B
:100C000001D903207AE7D8F8000000F00F00B042C5
:100C1000F2D12878400705D5A068E96820F4E060A3
:100C20000843A0602878000706D5A068296920F449
:100C3000605040EAC100A06000F020F8A1680C4AB2
:100C4000C1F30311515C01F01F01C840094908605C
:100C500009480068BDE8F047FFF7FEBC00200240ED
:100C60000010024000B4C4040024F40000366E01F9
:100C7000802100080C00002000000020184910B559
:100C80008868C0F381021748012A0BD08A68164B86
:100C9000C2F38102022A06D08A68C2F38102032AC3
:100CA00003D0002010BD184610BDCA6802F003042E
:100CB000CA68C2F30312521C032C02D0B0FBF2F03C
:100CC00001E0B3FBF2F0CA68C968C2F306225043E0
:100CD000C1F34161491C4900B0FBF1F010BD0000B7
:100CE000001002400024F40000366E012DE9F843A4
:100CF00004007AD02078F84DC00747D0A868E9688A
:100D000000F00C0001F003010C2802D0082817D0D5
:100D100001E0032914D06068B0F5803F17D0B0F52A
:100D2000A02F286817D020F480302860286820F48D
:100D3000802028606068E0B1FFF770FC064614E090
:100D40002868800322D560680028D2D01EE0286879
:100D500040F48030EDE740F480202860F7E700BFE2
:100D6000FFF75CFC801B642870D828688003F7D5E7
:100D70000CE0FFF753FC064605E000BFFFF74EFC12
:100D8000801B6428F0D828688003F7D42078800777
:100D90004CD5A868E96800F00C0001F003010C28AC
:100DA00002D004280DD001E002290AD0E068002812
:100DB00028682BD040F480702860FFF72FFC06468F
:100DC00019E02868400502D5E068002891D06868DD
:100DD000217C20F0FE4040EA01606860BF48006866
:100DE000FFF73AFC002800D120E072E1FFF716FC83
:100DF000801B0228B8D828684005F7D56868217C90
:100E000020F0FE4040EA016068600FE020F480704E
:100E10002860FFF703FC064605E000BFFFF7FEFB76
:100E2000801B0228A0D828684005F7D42078000746
:100E300029D560690028D5F8940013D040F001004E
:100E4000C5F89400FFF7EAFB064606E090E000BF15
:100E5000FFF7E4FB801B022886D8D5F894008007B2
:100E6000F6D510E020F00100C5F89400FFF7D6FB9E
:100E7000064604E0FFF7D2FB801B022878D8D5F89D
:100E800094008007F6D42078400761D5A86D00262D
:100E9000C00008D4A86D40F08050A865A86D012658
:100EA00000F0805000908E480168C90511D4016897
:100EB000804641F480710160FFF7B0FB074604E013
:100EC000FFF7ACFBC01B022852D8D8F80000C005C1
:100ED000F6D5A068012815D00528D5F8900016D0C1
:100EE00020F00100C5F89000D5F8900020F0040033
:100EF000C5F89000A06841F28838B8B1FFF78EFBC2
:100F000007460EE0D5F8900040F00100F0E740F011
:100F10000400C5F89000F5E7FFF780FBC11B4145D1
:100F200026D8D5F890008007F6D50CE0FFF776FBC1
:100F3000074604E0FFF772FBC11B414518D8D5F8FE
:100F400090008007F6D41EB1A86D20F08050A865EF
:100F50002078800629D5A0690028D5F8980013D0FC
:100F600040F00100C5F89800FFF758FB064606E080
:100F700075E000BFFFF752FB801B02286FD8D5F841
:100F800098008007F6D510E020F00100C5F8980021
:100F9000FFF744FB064604E0FFF740FB801B0228F6
:100FA0005DD8D5F898008007F6D4E069F0B3A96859
:100FB000C1F3810103295DD00228286820F08070E8
:100FC000286003D0FFF72AFB04464BE0FFF726FB1F
:100FD000064604E0FFF722FB801B02283FD8286862
:100FE0008001F7D4F4E908016FF00F0202EB011160
:100FF0000843218A5204490802EB4151A26841EAA0
:1010000002210843217D4FF07E42490802EB4161F5
:101010000843217B40EAC160E968324A1140084335
:10102000E860286840F08070286000E05EE0E868D2
:1010300040F08070E860FFF7F1FA044605E000BF79
:10104000FFF7ECFA001B022809D828688001F7D5C1
:101050004CE000BFFFF7E2FA001B022802D9032090
:10106000BDE8F88328688001F4D4E8681E49084088
:10107000E8603BE00128F3D0E868226A00F0030151
:10108000914226D1616A00F0F002090110399142C3
:101090001FD1A26A00F4FE41B1EB022F19D194F8DE
:1010A0002C2000F07841B1EBC26F12D1218E00F4F8
:1010B000C00249084905A1F50011914209D194F8EF
:1010C000341000F0C06049084906A1F10071814266
:1010D0000CD00120C4E700000010024000000020F6
:1010E000007000400C809F01FCFFEEFE0020B7E77F
:1010F000704710B5016804464868820601D5102083
:1011000002E042060BD50820E06004206072204611
:10111000FFF7EEFF21686FF06000486010BDC00768
:10112000FCD0086820F00800086020688168216110
:10113000607A0428F2D001206072002020722046DC
:1011400000F050F810BD70B5040003D0607A00259F
:1011500010B105E0012070BD2572204600F014F8A2
:101160000220607220680168626821F00801114362
:1011700001602068016841F0040101600120607293
:10118000E560002070BD000010B592B00446442117
:101190006846FFF791F81149206888421BD14FF447
:1011A0008040009000200E906846FFF735FB08B1A4
:1011B000FFF7F5F80A48C16C41F08061C164C06C6A
:1011C000002200F08060119011465A20FFF78CFA3F
:1011D0005A20FFF77BFA12B010BD0000000806503D
:1011E00000100240704710B5401EB0F1807F01D35F
:1011F000012010BD4FF0E02460610F21601700F066
:101200006FFF0020A06107202061002010BD704703
:10121000704770477047704770470000F0B590F80E
:101220003C20012A3AD0012580F83C50022280F867
:101230003D2003685A689C68194E1A4FB34201D08A
:10124000BB4204D122F4700C4A6842EA0C02DFF877
:1012500058C002EA0C02D1F800C04CEA020CC3F8F4
:1012600004C00268B2420DD0B2F1804F0AD00F4BD9
:101270009A4207D00E4B9A4204D0BA4202D00D4B8C
:101280009A4204D1896824F080031943916080F860
:101290003D50002180F83C100846F0BD0220F0BD12
:1012A000002C0140003401408FFFFFFD000400408E
:1012B0000008004000400140704710B5040003D012
:1012C00094F83D0010B107E0012010BD002084F823
:1012D0003C00204600F022F8022084F83D00211D49
:1012E000206800F067FE012084F8480084F83E0082
:1012F00084F83F0084F8400084F8410084F84200FC
:1013000084F8430084F8440084F8450084F84600DB
:1013100084F8470084F83D00002010BD08B500683F
:10132000B0F1804F12D10A48816D41F00101816511
:10133000806D002200F00100009011461C20FFF794
:10134000D3F9BDE808401C20FFF7C0B908BD000074
:101350000010024090F83D10012901D00120704793
:10136000022180F83D100168CA6842F00102CA609B
:101370000068104988420ED0B0F1804F0BD00E4962
:10138000884208D00D49884205D00D49884202D0D4
:101390000C49884207D181680B4A1140062906D0C2
:1013A000B1F5803F03D0016841F0010101600020E8
:1013B00070470000002C014000040040000800407D
:1013C00000340140004001400700010070B50446B0
:1013D00090F83C000025012814D0012684F83C60D8
:1013E000022084F83D0022689068364B184020F4B3
:1013F0007F409060086870282ED010DC10F00F0F2E
:1014000003D021E04FF0020070BD4FEA2012072AFE
:101410001AD2DFE802F0525252524A3840002A4BA8
:10142000C21A984249D009DCB0F5805F0DD0B0F502
:10143000005F1CD0B0F1101F06D13EE0102A3CD056
:10144000202A3AD0502A38D0012584F83D60002067
:1014500084F83C00284670BDCB68D1E901212068A2
:1014600000F006FE2068816841F0770109E0CB6852
:10147000D1E90121206800F0FBFD2068816841F47A
:1014800080418160E1E7CA684968206800F004FE95
:101490005021206806E0CA684968206800F00DFE07
:1014A0006021206800F0EEFDCFE7CA684968206837
:1014B00000F0F2FD40212068F4E722680146104662
:1014C000F0E7000088FFCEFF2000100070472DE9F4
:1014D000F04104460068C66805694FF00007A90797
:1014E00013D5B10711D5F91E0161012020772068BD
:1014F00080698007204602D0FFF7E8FF04E000F093
:10150000B7F8204600F0B5F82777680716D57007BA
:1015100014D521686FF0040008610220207720684C
:10152000806910F4407F204602D0FFF7CFFF04E02F
:1015300000F09EF8204600F09CF82777280715D584
:10154000300713D521686FF0080008610420207768
:101550002068C0698007204602D0FFF7B7FF04E08B
:1015600000F086F8204600F084F82777E80616D5C4
:10157000F00614D521686FF010000861082020776C
:101580002068C06910F4407F204602D0FFF79EFF1C
:1015900004E000F06DF8204600F06BF82777E807CC
:1015A00008D0F00706D021686FF0010008612046DE
:1015B00000F060F8280601D4A80408D5300606D546
:1015C00021686FF4025008612046FFF721FEE8050C
:1015D00008D5300606D521686FF480700861204672
:1015E000FFF715FE680608D5700606D521686FF06E
:1015F00040000861204600F063F8A80608D5B00650
:1016000006D521686FF0200008612046FFF701FE33
:10161000E80208D5F00206D521686FF48010086151
:101620002046FFF7F8FDA80208D5B00206D52168CC
:101630006FF4001008612046FFF7ECFD680208D542
:10164000700206D521686FF4800008612046FFF71C
:10165000E3FD28020AD5300208D521686FF40000A6
:1016600008612046BDE8F041FFF726BEBDE8F081E5
:101670007047704710B50068B0F1804F1CD10F481B
:101680004FF47A728168491CB1FBF2F381600478EF
:1016900002FB131304EB8404B3EB440F01D80123C2
:1016A00000E000230371B1FBF2F302FB13110029E8
:1016B00002D14178491C417010BD0000100000208B
:1016C0007047FEE700B585B014216846FEF7F4FDCB
:1016D0004FF6FF70009000200321CDE90201019038
:1016E00069460248FEF770FE05B000BD00080048DC
:1016F00000B585B014216846FEF7DEFD4FF6FF7099
:101700000090012001900320039000200290694680
:101710000248FEF759FE05B000BD00000008004871
:1017200070B5002406462146204600F0F9F800F086
:1017300037F94FF49635304600F006F9641CAC4298
:10174000F9D370BD70B586B014216846FEF7B4FDBC
:101750001E48C16C41F00401C164C16C01F0040178
:101760000591C16C41F00101C164C16C01F001013E
:101770000591C16C41F00201C164C06C032500F009
:10178000020005904FF448700124002603958DE86F
:10179000510069460E48FEF717FE200203958DE8BA
:1017A00051004FF0904469462046FEF70DFEFFF7CA
:1017B0009FFFA06940F48070A0610548183001685F
:1017C00041F40871016006B070BD000000100240D5
:1017D0000004004810B5FFF7B5FF002000F058F8EE
:1017E000084CA080A088A0F50241303906D000F056
:1017F00091FA002000F04CF8A08010BD00F001FA32
:10180000F7E700002000002070B5054600F0C8F89A
:1018100000244FF4E77600BF35F8140000F094F888
:10182000641CB442F8DB70BD2DE9F041064610445B
:10183000401E98460C46C7B2EF2E00D9EF26EF2F78
:1018400000D9EF2704EB0800401E85B24FF4A071C9
:10185000481E8C4200D304468D4200D305463146D3
:10186000502000F0CBF83946512000F0C7F821464F
:10187000522000F0C3F82946532000F0BFF804EBD3
:101880000800401E81B23046BDE8F04100F048B883
:1018900070B51D490A6842F400720A600A6842F491
:1018A00080720A60184C103C226842F020022260CC
:1018B000164A1060086840F02000086000BF00BFB2
:1018C00000BF206840F020002060206840F4807055
:1018D0002060FFF7F7FE4FF09041886A40F4807077
:1018E000886200BF00BF00BF0848001F006885B2C3
:1018F000886940F480708861FFF7FAFE206840F440
:1019000000702060284670BD280400481408004874
:1019100001B5BDF800000149488008BD2000002045
:1019200010B50C460146202000F068F82146BDE8BD
:101930001040212000F062B801B5BDF80000014957
:10194000088008BD20000020134A116841F400718E
:101950001160114910390B6843F480730B600B68F8
:1019600043F020030B600D4B1860106840F020001E
:10197000106000BF00BF00BF086840F02000086092
:10198000086840F48070086000BF00BF00BF0868AE
:1019900040F40070086070472804004814080048AC
:1019A0001449086840F400700860086840F48070CA
:1019B000086010481038026842F0200202600E4BA6
:1019C00022221A600A6842F020020A6000BF00BFAB
:1019D00000BF016841F020010160016841F480719D
:1019E000016000BF00BF00BF016841F400710160E9
:1019F000704700002804004814080048184B10B530
:101A00001A6842F400721A601A6842F480721A600E
:101A1000134A103A146844F020041460114C2060FA
:101A2000186840F02000186000BF00BF00BF1068B9
:101A300040F020001060106840F480701060216059
:101A4000186840F02000186000BF00BF00BF106899
:101A500040F020001060106840F48070106010BDED
:101A6000280400481408004810B501224FF47F41B3
:101A70000748FEF7CDFD074C012204212046FEF762
:101A8000C7FD20460022BDE810400421FEF7C0BD7E
:101A900000080048000C0048F0B587B014216846E3
:101AA000FEF70AFC2D48C16C41F00401C164C16C11
:101AB00001F004010591C16C41F02001C164C16CC9
:101AC00001F020010591C16C41F00101C164C16CBC
:101AD00001F001010591C16C41F00201C164C16CCA
:101AE00001F002010591C16C41F00801C164C06CB4
:101AF0001B4E00F008004FF47F4405900022214661
:101B00003046FEF785FD174F002204213846FEF7C8
:101B10007FFD0125CDE90045002402946946304649
:101B20000394FEF751FCCDE9005469464FF0904014
:101B30000295FEF749FC07208DE8310069460A4806
:101B4000FEF742FC04200090CDE901546946384676
:101B50000394FEF739FC07B0F0BD0000001002400E
:101B600000080048000C004800040048084810B570
:101B70000649016000214160FFF7E5FA002803D023
:101B8000BDE81040FEF70BBC10BD00000008065079
:101B90002800002010B588B0002417480094019454
:101BA00002940394049405944FF0804106940160DC
:101BB0000921C0E9011441F63F71C0E903148461B1
:101BC000FFF77BFB08B1FEF7EAFB4FF48050009073
:101BD00069460948FFF7FAFB08B1FEF7E0FB0494F9
:101BE00004A905480694FFF719FB002801D0FEF769
:101BF000D6FB08B010BD00003C000020FEE7FEE769
:101C0000704730B501210020FFF7F8FE4FF47A70DD
:101C1000FEF7B7FB00210120FFF7F0FE41F29071C3
:101C20001020FFF7EBFE4FF41C516020FFF7E6FE9B
:101C300001216120FFF7E2FE02214620FFF7DEFED0
:101C400048F210011320FFF7D9FE48F2FE011220DE
:101C5000FFF7D4FE4FF4A0610220FFF7CFFE41F260
:101C600030010320FFF7CAFE40F203342146302042
:101C7000FFF7C4FE21463120FFF7C0FE2146322087
:101C8000FFF7BCFEE51E29463320FFF7B7FE032110
:101C90003420FFF7B3FE21463520FFF7AFFE1421B5
:101CA0003620FFF7ABFE21463720FFF7A7FE21467F
:101CB0003820FFF7A3FE21463920FFF79FFE294673
:101CC0003A20FFF79BFE03213B20FFF797FE2146BA
:101CD0003C20FFF793FE4FF4A0513D20FFF78EFE0E
:101CE0004FF400719220FFF789FE21469320FFF701
:101CF00085FE40F60D019020FFF780FE41F21801AD
:101D00000320FFF77BFEBDE8304040F2731107204F
:101D1000FFF774BE10B543F20801E320FFF76EFE33
:101D20001221E720FFF76AFE41F23121EF20FFF791
:101D300065FE00210120FFF761FE4FF4E061022003
:101D4000FFF75CFE41F230010320FFF757FE002150
:101D50000420FFF753FE40F207210820FFF74EFE54
:101D600000210920FFF74AFE00210A20FFF746FE66
:101D700000210C20FFF742FE00210D20FFF73EFE60
:101D800000210F20FFF73AFE00211020FFF736FE5A
:101D900007211120FFF732FE00211220FFF72EFE4F
:101DA00000211320FFF72AFEC820FEF7FBFA41F2BC
:101DB00090611020FFF722FE40F227211120FFF74B
:101DC0001DFE3220FEF7EEFA1D211220FFF716FE4F
:101DD0003220FEF7E7FA4FF400611320FFF70EFE02
:101DE00014212920FFF70AFE0B212B20FFF706FE06
:101DF0003220FEF7D7FA00212020FFF7FFFD002157
:101E00002120FFF7FBFD07213020FFF7F7FD40F20F
:101E100007713120FFF7F2FD06213220FFF7EEFDBA
:101E200040F204713520FFF7E9FD41F604713620D8
:101E3000FFF7E4FD04213720FFF7E0FD0021382003
:101E4000FFF7DCFD40F206713920FFF7D7FD40F2C5
:101E500001713C20FFF7D2FD0F213D20FFF7CEFDA1
:101E600000215020FFF7CAFDEF215120FFF7C6FDEA
:101E700000215220FFF7C2FD40F23F115320FFF72F
:101E8000BDFD4FF41C516020FFF7B8FD012161201A
:101E9000FFF7B4FD00216A20FFF7B0FD002180208C
:101EA000FFF7ACFD00218120FFF7A8FD0021822073
:101EB000FFF7A4FD00218320FFF7A0FD002184206F
:101EC000FFF79CFD00218520FFF798FD1021902051
:101ED000FFF794FD00219220FFF790FD032193204E
:101EE000FFF78CFD4FF488719520FFF787FD0021E7
:101EF0009720FFF783FD00219820FFF77FFD41F237
:101F000018010320FFF77AFDBDE8104040F273117D
:101F10000720FFF773BD00000148FFF7EAB8000093
:101F2000280000207047FEF77FBB10B594B0382121
:101F30006846FEF7C1F914210EA8FEF7BDF94FF46B
:101F40000070FEF703FC212000904FF480300190D8
:101F50000120069002200324CDE907041421CDE9D5
:101F60000A100C900D9009946846FEF7BFFE08B168
:101F700072B6FEE70F20CDE90E04002010901190FC
:101F8000129002210EA8FEF78BFD002801D072B638
:101F9000FEE714B010BD00000248016841F4700172
:101FA0000160704788ED00E00148FFF790BA00003B
:101FB0003C0000202DE9F0430268264B264D274EB9
:101FC000274C4FF08049984207D0484505D0A84299
:101FD00003D0B04201D0A04203D122F070074A687A
:101FE0003A43204FDFF880C0DFF8808098420DD060
:101FF00048450BD0A84209D0B04207D0A04205D036
:10200000B84203D0604501D0404503D122F4407569
:10201000CA682A434D6922F080022A4302608A6816
:10202000C2620A688262984207D0A04205D0B842D4
:1020300003D0604501D0404501D109690163012108
:1020400041610169C90703D0016921F00101016102
:10205000BDE8F083002C014000040040000800406F
:10206000003401400040014000440140004801406C
:1020700010B5846842EA032224F47F440A432243D1
:10208000826010BD8268034B1A400A4342F0070188
:10209000816070478FFFCFFF10B5036A046A24F098
:1020A00001040462846924F0F00444EA021423F079
:1020B0000A020A438461026210BD10B5036A046A11
:1020C00024F010040462846923F0A00324F4704413
:1020D00044EA023243EA01118261016210BDFEE767
:1020E0000907090E002804DB00F1E02080F8001445
:1020F000704700F00F0000F1E02080F8141D7047D9
:1021000010B5FFF7B1FCFFF765FB6420FEF74AF955
:102110000F48FFF71FF9012204210E48FEF778FA55
:102120000020FFF7F5FB4FF6FF70FFF705FC0020DE
:10213000FFF7F6FA6420FEF735F91421162315226D
:102140000846FFF771FBBDE810400348FFF75CBB92
:102150003C000020000C004890210008FEF76CFABB
:10216000FFF7E3FEFFF798FCFFF714FDFFF7FEFC17
:10217000FFF7C6FFFEE74FF04070E1EE100A704730
:102180000000000000000000010203040607080927
:10219000E739E739E739E739084208420842E739C1
:1021A000E739E7390842E739E739E739E739E73905
:1021B000E7390842E7390842E73908420842E73977
:1021C000E7390842E7390842E739E739E739E739BB
:1021D000E7390842E739E7390842E739E739084281
:1021E0000842E739E739E739E739E739E739E739C5
:1021F000E7390842C404C404C404C404E739E73915
:102200000842C005C005C005E739E739E73908428B
:102210000842E739E739E739E739E739E73908426A
:10222000C62BC404C404C404C4040842C005C005C9
:10223000C005C005C52CC40408420842E739E73987
:10224000E7390842E739E739C005A10DC005C404E4
:10225000C404C404C4040842C005C005C005C005C8
:10226000C404C404C404E73908420842E739E73922
:10227000E7394305C005C005C005A005C404C40472
:10228000C4040842C005C005C0050305C404C40455
:10229000C404E7390842E739E739E739E739430544
:1022A000C005C005C005C005A005C404C40443059D
:1022B000C005C005E404C404C404C404C404E7396C
:1022C000E7390842E7390842E73908424305C005C3
:1022D000C005C005C005C005C4044305C005C4044D
:1022E000C404C404C404C4046633E739E739E739D5
:1022F000E739E739E739E739E7398633C005C005FB
:10230000C005C005C005C404C404C404C404C40496
:10231000C4040733E739E739E739E739E739E739FB
:10232000E739084208426633C404C404C404C40440
:10233000C404C404C005C005C005C005C005652CA3
:10234000E739E739E739E739E739E739E739C404E5
:10235000A414C404C404C404C404C404C0054205D1
:10236000C404C005C005C005C005C005A10DE739FE
:1023700008420842E739E739E739C404C404C40411
:10238000C404C4044305C005C0056205C404C404F4
:102390004305C005C005C005C005E7390842E73957
:1023A000E739E739E739C404C404C404C4040305A5
:1023B000C005C005C005273AC404C404C4046205AE
:1023C000C005C0054305E739E739E7390842E73971
:1023D000E739E739C404C4048105C005C005C00558
:1023E000C005E73AC404C404C404C404E404E739DF
:1023F000E739E739E739E739E7390842E739084289
:102400000842E739C005C005C005C005C005C404C1
:10241000C404C404C404C404C404E739E739E73974
:10242000E739084208420842E739E739E739E7392E
:102430004305C10DC005C005E739C404E739C4042C
:10244000C404C404C4040842E7390842E739E73940
:10245000E739E739E739E739E7390842E739E73952
:1024600008420842E7394305E7390842C404C40476
:10247000E73908420842E739E739E739E739E73908
:10248000E739E739E739E7390842E739E739E73922
:10249000C005273AE739E7390842E739E739084202
:1024A0000842084208420842E739E739E73908425A
:1024B0000842E739E739E739E739E739C005E7394D
:1024C000E739E739E739E739E7390842E739E739E2
:1024D0000842E7390842E739E739E7390842E7397E
:1024E000E739E739E739E739E73908420842E73998
:1024F000E739E7390842E73908420842E739E7395E
:10250000E739E739084208420842E739E739E7394D
:10251000E739E739E739E739E739E739E739E739BB
:10252000E7390842E739E739E739E7394C25000848
:102530000000002028000000140200087425000894
:1025400028000020C0060000300200081000000033
:1025500001000000000000000024F40023373B17B6
:102560000100000000000000000000000000FFFF6C
:042570000000000067
:04000005080001D915
:00000001FF
