:020000040800F2
:10000000E877002081020008F72200082F1A000874
:10001000F52200086B060008D72700080000000042
:100020000000000000000000000000001D26000885
:100030006D06000800000000F92200081F260008D5
:100040009B0200089B0200089B0200089B0200081C
:100050009B0200089B0200089B0200089B0200080C
:100060009B0200089B0200089B0200089B020008FC
:100070009B0200089B0200089B0200089B020008EC
:100080009B020008000000009B0200089B02000881
:100090009B0200089B0200089B0200089B020008CC
:1000A0009B0200089B0200089B0200089B020008BC
:1000B000A12600089B0200089B0200089B02000882
:1000C0009B0200089B0200089B0200089B0200089C
:1000D0009B0200089B0200089B0200089B0200088C
:1000E0009B0200089B0200089B0200089B0200087C
:1000F0009B0200089B0200089B0200080000000011
:10010000000000009B020008000000009B020008A5
:100110009B020008000000009B0200089B020008F0
:100120009B0200089B0200089B0200089B0200083B
:100130009B02000800000000000000009B02000875
:100140009B0200089B020008000000000000000065
:10015000000000000000000000000000000000009F
:100160000000000000000000000000009B020008EA
:100170009B020008000000000000000000000000DA
:10018000000000009B0200080000000000000000CA
:10019000000000000000000000000000000000005F
:1001A0000000000000000000112600089B0200086B
:1001B0009B0200089B0200089B0200080000000050
:1001C000000000009B02000800000000000000008A
:1001D0009B0200089B02000800F002F800F041F8C2
:1001E0000AA090E8000C82448344AAF10107DA4592
:1001F00001D100F036F8AFF2090EBAE80F0013F0A3
:10020000010F18BFFB1A43F001031847E4950000E3
:1002100004960000103A24BF78C878C1FAD8520773
:1002200024BF30C830C144BF04680C607047000070
:100230000023002400250026103A28BF78C1FBD8EF
:10024000520728BF30C148BF0B607047642900F0D7
:100250007F80002070471FB502F072FC1FBD10B5F3
:1002600010BD00F0C8F91146FFF7F5FF02F0F4FBEE
:1002700000F0E6F903B4FFF7F2FF03BC00F0EEF97B
:100280000948804709480047FEE7FEE7FEE7FEE72A
:10029000FEE7FEE7FEE7FEE7FEE7FEE70448054966
:1002A000054A064B7047000091260008D901000856
:1002B000E8710020E8770020E8730020E873002050
:1002C0000FB41CB5074B06AA7B44694600900598FD
:1002D00000F047F90020694600F056F91CBC5DF8B3
:1002E00014FB0000BD0200002DE9F0410E4604465B
:1002F000002020622046E168884730B3252805D0D9
:10030000D4E901219047206A401CF2E7E1682046C9
:1003100000278847050018D0A5F14100192802D808
:1003200020354FF400673246294620462760FFF704
:100330008DFF40B1012804D0F61D26F007060836CF
:10034000D8E7361DD6E72846DAE7206ABDE8F0810F
:100350002DE9F0410646002410687529314616A59E
:1003600010D0AFF30080002802DA404213A507E066
:1003700031688A0701D512A502E0490704D511A505
:10038000012401E0AFF3008000210A2206F12407D6
:1003900009E0B0FBF2FCB0FBF2F302FB1C003030D2
:1003A00078541846491C0028F3D123462A46304683
:1003B000BDE8F04100F077B8000000002D0000001B
:1003C0002B00000020000000032A40F2308010F0D3
:1003D000030C00F0158011F8013BBCF1020F6244E0
:1003E00098BF11F801CB00F8013B38BF11F8013B71
:1003F000A2F1040298BF00F801CB38BF00F8013B1E
:1004000011F0030300F0C580083AC0F0088051F8ED
:10041000043B083A51F804CBA0E80810F5E7121D98
:100420005CBF51F8043B40F8043BAFF30080D207B7
:1004300024BF11F8013B11F801CB48BF11F8012B83
:1004400024BF00F8013B00F801CB48BF00F8012BA6
:1004500070474FF0000200B5134694469646203987
:1004600022BFA0E80C50A0E80C50B1F12001BFF46D
:10047000F7AF090728BFA0E80C5048BF0CC05DF8D3
:1004800004EB890028BF40F8042B08BF704748BF21
:1004900020F8022B11F0804F18BF00F8012B704795
:1004A0007047704770472DE9F0470D4699469246D0
:1004B000044600F124080168880604D5E06921F0AB
:1004C0001001216000E00120A84201DD471B00E08F
:1004D0000027A1697A1902EB0900081AA0612078A7
:1004E000C00602D42046AFF30080002608E0D4E91D
:1004F00001211AF806009047206A401C761C2062F1
:100500004E45F4DB2078C0060AD52046AFF30080C4
:1005100006E0D4E9012130209047206A401C206287
:10052000381EA7F10107F4DC07E0D4E9012118F82F
:1005300005009047206A401C2062281EA5F1010595
:10054000F3DC2046AFF300802078000602D50220BD
:10055000BDE8F0870120FBE701694A1C02610878C9
:10056000704700B58FB0CDE90131002105910549F3
:100570007944CDE9031011466846FFF7B5FE0FB088
:1005800000BD0000E5FFFFFF0A6802F8010B0A60EA
:10059000704710B5203AC0F00B80B1E81850203AEF
:1005A000A0E81850B1E81850A0E81850BFF4F5AF13
:1005B0005FEA027C24BFB1E81850A0E8185044BF9D
:1005C00018C918C0BDE810405FEA827C24BF51F80A
:1005D000043B40F8043B08BF7047D20728BF31F8FE
:1005E000023B48BF11F8012B28BF20F8023B48BF4F
:1005F00000F8012B7047754600F02CF8AE46050058
:100600006946534620F00700854618B020B5FFF72D
:1006100045FEBDE820404FF000064FF000074FF0C8
:1006200000084FF0000B21F00701AC46ACE8C00910
:10063000ACE8C009ACE8C009ACE8C0098D46704719
:1006400010B50446AFF300802046BDE81040FFF728
:1006500011BE000000487047887100200149182031
:10066000ABBEFEE7260002007047FEE7704700229F
:1006700040F6B83306E00021491C89B29942FBD309
:10068000521C92B28242F6D3704772B6FEE7000067
:1006900070B5044600F03CF90546601C02D00448E1
:1006A0004068044400F034F9401BA042FAD370BD06
:1006B000000000202DE9F04FDFF8209200230126F2
:1006C0000324A9F1040B85B00F2709F1040AABF14B
:1006D000040EFAE006FA03F52A407CD091F804C033
:1006E0000CF0030CBCF1010F02D0BCF1020F26D1BB
:1006F000D0F808C0CDF800C04FEA430C04FA0CF85B
:10070000CDF810C0DDF800C02CEA080CCDF800C010
:10071000D1F80C80DDF810C008FA0CF8DDF800C044
:1007200048EA0C08C0F80880D0F804C02CEA050C90
:100730000D79C5F300159D4045EA0C0545600D791E
:10074000ED43AD070ED0C5684FEA430804FA08FC34
:1007500025EA0C05D1F808C00CFA08FC4CEA050C97
:10076000C0F80CC00D7905F00305022D16D1DD0887
:1007700000EB850CCDF808C0DCF820805D074FEA5F
:10078000D56C07FA0CF528EA05080D6905FA0CF591
:10079000DDF808C045EA0805CCF8205005684FEAA6
:1007A000430CCDF808C004FA0CFC25EA0C0591F8BE
:1007B00004C00CF00308DDF808C008FA0CF848EA99
:1007C0000508C0F800804D6815F4403F7CD0444DCA
:1007D000D5F860C000E077E04CF0010CC5F860C0CF
:1007E0002D6E23F0030C05F0010500953D4D654489
:1007F0000295AD684FEA837C4FEA1C7807FA08FC43
:1008000025EA0C05B0F1904F06D0DFF8DCC060455A
:1008100005D14FF0010C20E04FF0000C1DE0DFF897
:10082000CCC0604502D14FF0020C16E0DFF8C0C02A
:10083000604502D14FF0030C0FE0DFF8B8C060450F
:1008400002D14FF0040C08E0DFF8ACC0604502D1E3
:100850004FF0050C01E04FF0060C0CFA08FC4CEAD6
:10086000050C029DC5F808C0D9F80050CC46D1F857
:10087000048095435FEAC82800D51543CCF80050A2
:10088000DAF80050D446D1F8048095435FEA88280E
:1008900000D51543CCF80050DBF80050DC46D1F809
:1008A000048095435FEA883800D51543CCF80050A2
:1008B000DEF80050F446D1F8048095435FEAC8386A
:1008C00000D51543CCF800505B1C0A6832FA03F5DA
:1008D0007FF400AF05B0BDE8F08F000008040140D0
:1008E00000100240000001400004004800080048D9
:1008F000000C00480010004800140048006908403F
:1009000000D0012070470AB1816170478162704751
:10091000014880687047000000000020024881689C
:1009200042681144816070470000002010B5002427
:10093000032000F073F80F2000F008F808B101243C
:1009400001E000F025F8204610BD000070B50E4E05
:1009500005460024706898B14FF47A71B1FBF0F04D
:100960000A490968B1FBF0F000F0F7FD40B9102D1D
:1009700006D200222946501E00F030F8356000E013
:100980000124204670BD0000000000200C00002063
:100990000A4882B0016E41F001010166016E01F06A
:1009A00001010091816D41F080518165806D00F001
:1009B0008050009002B000F0A1B80000001002408A
:1009C000002809DB00F01F0201219140400980004E
:1009D00000F1E020C0F8001170470000F0B40E4BA9
:1009E0001B680C46C3F30223C3F10705042D00D98D
:1009F0000425191D072901D2002300E0DB1E012672
:100A000006FA05F1491E214099409E40761E164087
:100A10003143F0BC01F0E0BE0CED00E0064900F00F
:100A2000070208684FF6FF03184040EA0220034A15
:100A300010430860704700000CED00E00000FA056C
:100A40002B492C4B0A6832214A432B4940B1B0F55F
:100A5000007F086829D020F4C06040F480602CE05A
:100A60000868C0F34120022804D051F8800F20F418
:100A7000807022E0D1F8800020F48070C1F88000FE
:100A8000086820F4C06040F400700860B2FBF3F026
:100A9000401C00E0401E4A69520501D50028F9D1EA
:100AA000486940050AD503207047C0F34120022859
:100AB00006D051F8800F40F4807008600020704725
:100AC000D1F8800040F48070C1F88000086820F4FC
:100AD000C06040F400700860B2FBF3F0401C00E01E
:100AE000401E4A695205DBD50028F9D1D8E700003D
:100AF0000C00002040420F00007000400248816856
:100B000041F4804181607047007000402DE9F84356
:100B10000446006800269D4D00035ED5A86D0027A1
:100B2000C00008D4A86D40F08050A865A86D0127CA
:100B300000F080500090DFF85892D9F8001041F48E
:100B40008071C9F80010FFF7E3FE804606E000BFA1
:100B5000FFF7DEFEA0EB080002282BD8D9F8000032
:100B6000C005F5D5D5F8900010F4407014D0216C74
:100B7000814211D0D5F89000D5F8901020F4407043
:100B800041F48031C5F89010D5F8901021F48031EF
:100B9000C5F89010C5F89000C00711D0FFF7B8FE57
:100BA000804641F2883907E0FFF7B2FEA0EB08016A
:100BB000494501D903260BE0D5F890008007F3D50D
:100BC000D5F89000216C20F440700843C5F89000DF
:100BD0001FB1A86D20F08050A8652078C00707D00D
:100BE000D5F88800616820F003000843C5F8880044
:100BF0002078800707D5D5F88800A16820F00C0080
:100C00000843C5F888002078400707D5D5F8880044
:100C1000E16820F030000843C5F88800207800071C
:100C200007D5D5F88800216920F0C0000843C5F831
:100C300088002078800607D5D5F88800616920F4FF
:100C400040600843C5F888002078400607D5D5F8ED
:100C50008800A16920F440500843C5F88800207836
:100C6000000607D5D5F88800E16920F44040084324
:100C7000C5F888002088C00507D5D5F88800216A06
:100C800020F440300843C5F888002088800507D547
:100C9000D5F88800616A20F440200843C5F8880030
:100CA000208840050FD5D5F88800A16A20F44010AF
:100CB0000843C5F88800A06AB0F5801F03D1E86832
:100CC00040F48010E860208800050FD5D5F8880032
:100CD000E16A20F440000843C5F88800E06AB0F5F6
:100CE000800F03D1E86840F48010E8602088C004D9
:100CF0000FD5D5F88800216B20F040700843C5F867
:100D00008800206BB0F1807F03D1E86840F4801048
:100D1000E86020884FF0006180040ED5D5F8880087
:100D2000626B20F040601043C5F88800606B884219
:100D300003D1E86840F48010E860208840040ED5B4
:100D4000D5F88800A26B20F040601043C5F88800F9
:100D5000A06B884203D1E86840F48010E8602088E6
:100D600000040FD5D5F88800E16B20F0405008430F
:100D7000C5F88800E06BB0F1805F03D1E86840F40B
:100D80008030E8603046BDE8F88300000010024083
:100D9000007000402DE9F0470E4605004FF00007B7
:100DA00025D0DFF8AC81D8F8000000F00F00B04289
:100DB0000CD2D8F8001021F00F013143C8F8001010
:100DC000D8F8000000F00F00B04210D12968614C43
:100DD000C80741F2883A5AD06868DFF87C91032846
:100DE00008D0022820682DD0400500282CDB0120E7
:100DF000BDE8F08720688001F9D5E06800F00302C3
:100E0000E068C0F30310401C032A19D0534A00BF06
:100E1000B2FBF0F0E268C2F306225043E268C2F38C
:100E20004162521C5200B0FBF2F0484517D9A0684D
:100E300010F0F00F0CD0880711D5A86840B10EE073
:100E4000474AE5E78003D0E700F092F8484506D925
:100E5000A06820F0F00040F08000A0608027A0682B
:100E6000696820F003000843A060FFF751FD814648
:100E700006E000BFFFF74CFDA0EB090151453AD851
:100E8000A068696800F00C00B0EB810FF2D128680F
:100E9000810714D5400703D5A06840F4E060A06046
:100EA0002878000705D5A06820F4605040F4E06081
:100EB000A060A068A96820F0F000084304E0802F3B
:100EC00003D1A06820F0F000A060D8F800104046E0
:100ED00001F00F01B14216D9016821F00F01314331
:100EE0000160FFF715FD074607E000BFFFF710FDA3
:100EF000C11B514501D903207AE7D8F8000000F062
:100F00000F00B042F2D12878400705D5A068E96803
:100F100020F4E0600843A0602878000706D5A068A8
:100F2000296920F4605040EAC100A06000F020F878
:100F3000A1680C4AC1F30311515C01F01F01C840C4
:100F40000949086009480068BDE8F047FFF7FEBCA2
:100F5000002002400010024000B4C4040024F40049
:100F600000366E014A2B00080C0000200000002013
:100F7000184910B58868C0F381021748012A0BD0C0
:100F80008A68164BC2F38102022A06D08A68C2F32D
:100F90008102032A03D0002010BD184610BDCA6884
:100FA00002F00304CA68C2F30312521C032C02D0DD
:100FB000B0FBF2F001E0B3FBF2F0CA68C968C2F31B
:100FC00006225043C1F34161491C4900B0FBF1F0D6
:100FD00010BD0000001002400024F40000366E0135
:100FE0002DE9F84304007AD02078F84DC00747D0A7
:100FF000A868E96800F00C0001F003010C2802D099
:10100000082817D001E0032914D06068B0F5803FAC
:1010100017D0B0F5A02F286817D020F480302860B2
:10102000286820F4802028606068E0B1FFF770FC39
:10103000064614E02868800322D560680028D2D0D4
:101040001EE0286840F48030EDE740F480202860FE
:10105000F7E700BFFFF75CFC801B642870D82868A6
:101060008003F7D50CE0FFF753FC064605E000BF10
:10107000FFF74EFC801B6428F0D828688003F7D463
:10108000207880074CD5A868E96800F00C0001F0D2
:1010900003010C2802D004280DD001E002290AD057
:1010A000E068002828682BD040F480702860FFF7A3
:1010B0002FFC064619E02868400502D5E0680028A4
:1010C00091D06868217C20F0FE4040EA01606860B1
:1010D000BF480068FFF73AFC002800D120E072E129
:1010E000FFF716FC801B0228B8D828684005F7D502
:1010F0006868217C20F0FE4040EA016068600FE0F3
:1011000020F480702860FFF703FC064605E000BF6E
:10111000FFF7FEFB801B0228A0D828684005F7D403
:101120002078000729D560690028D5F8940013D0ED
:1011300040F00100C5F89400FFF7EAFB064606E020
:1011400090E000BFFFF7E4FB801B022886D8D5F8AB
:1011500094008007F6D510E020F00100C5F8940057
:10116000FFF7D6FB064604E0FFF7D2FB801B022800
:1011700078D8D5F894008007F6D42078400761D558
:10118000A86D0026C00008D4A86D40F08050A86566
:10119000A86D012600F0805000908E480168C905B6
:1011A00011D40168804641F480710160FFF7B0FB03
:1011B000074604E0FFF7ACFBC01B022852D8D8F862
:1011C0000000C005F6D5A068012815D00528D5F87F
:1011D000900016D020F00100C5F89000D5F89000DE
:1011E00020F00400C5F89000A06841F28838B8B13A
:1011F000FFF78EFB07460EE0D5F8900040F00100A7
:10120000F0E740F00400C5F89000F5E7FFF780FB39
:10121000C11B414526D8D5F890008007F6D50CE0D3
:10122000FFF776FB074604E0FFF772FBC11B414561
:1012300018D8D5F890008007F6D41EB1A86D20F01C
:101240008050A8652078800629D5A0690028D5F8A7
:10125000980013D040F00100C5F89800FFF758FB44
:10126000064606E075E000BFFFF752FB801B022830
:101270006FD8D5F898008007F6D510E020F001006F
:10128000C5F89800FFF744FB064604E0FFF740FB73
:10129000801B02285DD8D5F898008007F6D4E06955
:1012A000F0B3A968C1F3810103295DD00228286841
:1012B00020F08070286003D0FFF72AFB04464BE043
:1012C000FFF726FB064604E0FFF722FB801B0228FF
:1012D0003FD828688001F7D4F4E908016FF00F02C5
:1012E00002EB01110843218A5204490802EB4151E3
:1012F000A26841EA02210843217D4FF07E4249085D
:1013000002EB41610843217B40EAC160E968324A4F
:1013100011400843E860286840F08070286000E0D1
:101320005EE0E86840F08070E860FFF7F1FA04469C
:1013300005E000BFFFF7ECFA001B022809D8286877
:101340008001F7D54CE000BFFFF7E2FA001B02284E
:1013500002D90320BDE8F88328688001F4D4E86846
:101360001E490840E8603BE00128F3D0E868226AA3
:1013700000F00301914226D1616A00F0F0020901F8
:10138000103991421FD1A26A00F4FE41B1EB022F45
:1013900019D194F82C2000F07841B1EBC26F12D132
:1013A000218E00F4C00249084905A1F500119142BF
:1013B00009D194F8341000F0C06049084906A1F141
:1013C000007181420CD00120C4E7000000100240EF
:1013D00000000020007000400C809F01FCFFEEFE2A
:1013E0000020B7E7704700002DE9F0470446007A77
:1013F00000278A4601280ED001252572607A4FF019
:101400000009012809D00420E060012784F8089031
:101410003846BDE8F0870220FBE74FF0020884F869
:101420000980FFF775FA064611E000BFFFF770FA72
:10143000801B02280BD920684068C043C00706D033
:101440006572C4F80C8084F808900120E1E72068F8
:101450004068C043C007E9D1206880682061CAF8AD
:1014600000006572D2E710B501680446486882063C
:1014700001D5102002E042060BD50820E0600420D0
:1014800060722046FFF7AEFF21686FF06000486091
:1014900010BDC007FCD0086820F008000860206874
:1014A00081682161607A0428F2D0012060720020F6
:1014B0002072204600F050F810BD70B5040003D033
:1014C000607A002510B105E0012070BD257220462C
:1014D00000F014F80220607220680168626821F050
:1014E0000801114301602068016841F004010160B6
:1014F00001206072E560002070BD000010B592B060
:10150000044644216846FEF7A4FF1149206888423A
:101510001BD14FF48040009000200E906846FFF7EA
:10152000F5FA08B1FFF7B1F80A48C16C41F08061E3
:10153000C164C06C002200F08060119011465A20F6
:10154000FFF74CFA5A20FFF73BFA12B010BD00002B
:101550000008065000100240704710B5401EB0F160
:10156000807F01D3012010BD4FF0E02460610F2186
:10157000601701F031F90020A061072020610020F0
:1015800010BD704770477047704770477047000044
:10159000F0B590F83C20012A3AD0012580F83C5063
:1015A000022280F83D2003685A689C68194E1A4F41
:1015B000B34201D0BB4204D122F4700C4A6842EA23
:1015C0000C02DFF858C002EA0C02D1F800C04CEA65
:1015D000020CC3F804C00268B2420DD0B2F1804FD1
:1015E0000AD00F4B9A4207D00E4B9A4204D0BA420F
:1015F00002D00D4B9A4204D1896824F0800319432C
:10160000916080F83D50002180F83C100846F0BD04
:101610000220F0BD002C0140003401408FFFFFFD8F
:10162000000400400008004000400140704710B531
:10163000040003D094F83D0010B107E0012010BD74
:10164000002084F83C00204600F022F8022084F8B4
:101650003D00211D206801F029F8012084F8480090
:1016600084F83E0084F83F0084F8400084F841008C
:1016700084F8420084F8430084F8440084F845006C
:1016800084F8460084F8470084F83D00002010BD2F
:1016900008B50068B0F1804F12D10A48816D41F061
:1016A00001018165806D002200F00100009011466B
:1016B0001C20FFF793F9BDE808401C20FFF780B914
:1016C00008BD00000010024090F83D10012901D033
:1016D00001207047022180F83D100168CA6842F07D
:1016E0000102CA600068104988420ED0B0F1804FF4
:1016F0000BD00E49884208D00D49884205D00D49CB
:10170000884202D00C49884207D181680B4A1140B7
:10171000062906D0B1F5803F03D0016841F00101F0
:101720000160002070470000002C014000040040D0
:101730000008004000340140004001400700010063
:1017400070B5044690F83C000025012814D001260D
:1017500084F83C60022084F83D0022689068364B93
:10176000184020F47F409060086870282ED010DC6C
:1017700010F00F0F03D021E04FF0020070BD4FEAD0
:101780002012072A1AD2DFE802F0525252524A3887
:1017900040002A4BC21A984249D009DCB0F5805F5C
:1017A0000DD0B0F5005F1CD0B0F1101F06D13EE0A7
:1017B000102A3CD0202A3AD0502A38D0012584F86B
:1017C0003D60002084F83C00284670BDCB68D1E91C
:1017D0000121206800F0C8FF2068816841F077018E
:1017E00009E0CB68D1E90121206800F0BDFF206845
:1017F000816841F480418160E1E7CA6849682068F6
:1018000000F0C6FF5021206806E0CA6849682068D9
:1018100000F0CFFF6021206800F0B0FFCFE7CA687A
:101820004968206800F0B4FF40212068F4E722688E
:1018300001461046F0E7000088FFCEFF20001000B0
:1018400070472DE9F04104460068C66805694FF00D
:101850000007A90713D5B10711D5F91E01610120B1
:101860002077206880698007204602D0FFF7E8FFD4
:1018700004E000F0B7F8204600F0B5F827776807D5
:1018800016D5700714D521686FF004000861022096
:1018900020772068806910F4407F204602D0FFF74F
:1018A000CFFF04E000F09EF8204600F09CF8277778
:1018B000280715D5300713D521686FF00800086197
:1018C000042020772068C0698007204602D0FFF7F7
:1018D000B7FF04E000F086F8204600F084F8277790
:1018E000E80616D5F00614D521686FF010000861DF
:1018F000082020772068C06910F4407F204602D07D
:10190000FFF79EFF04E000F06DF8204600F06BF852
:101910002777E80708D0F00706D021686FF00100AC
:101920000861204600F060F8280601D4A80408D514
:10193000300606D521686FF4025008612046FFF793
:1019400021FEE80508D5300606D521686FF48070C1
:1019500008612046FFF715FE680608D5700606D513
:1019600021686FF040000861204600F05FF8A8068B
:1019700008D5B00606D521686FF020000861204622
:10198000FFF701FEE80208D5F00206D521686FF4E2
:10199000801008612046FFF7F8FDA80208D5B002C4
:1019A00006D521686FF4001008612046FFF7ECFDB2
:1019B000680208D5700206D521686FF480000861BE
:1019C0002046FFF7E3FD28020AD5300208D521683A
:1019D0006FF4000008612046BDE8F041FFF726BE25
:1019E000BDE8F0817047704710B50068B0F1804FD6
:1019F00019D10D484FF47A728168491CB1FBF2F39A
:101A0000816002FB1313C488A34201D8012300E0C4
:101A10000023C370B1FBF2F302FB1311002902D1C2
:101A20000178491C017010BD180000207047FEE7C6
:101A30002DE9F05FDFF818810546002401214046BA
:101A4000FEF75CFF434E022130704046FEF756FF22
:101A5000414F042138704046FEF750FFDFF8FC90FC
:101A6000012189F800004FF09040FEF747FF3C4904
:101A7000DFF8F0B04FF47A72087001469BF800303E
:101A80003948012B01D023B10EE0337863B90560EA
:101A90000AE03378012B07D10368EB1A934202D88E
:101AA0000124934200D30A24DFF8C0A09AF8003042
:101AB000012B01D023B10EE03B7863B945600AE009
:101AC0003B78012B07D14368EB1A934202D80224DA
:101AD000934200D31424DFF898C09CF80030012B07
:101AE00001D02BB110E099F800306BB985600BE0A4
:101AF00099F80030012B07D18368EB1A934202D882
:101B00000324934200D31E24DFF8688098F8003045
:101B1000012B01D01BB10CE059B9C56009E00129C6
:101B200007D1C068281A904202D80424904200D3FA
:101B3000282432788BF800203A788AF8002099F827
:101B400000008CF8000088F800102046BDE8F09FE7
:101B500000040048110000201300002015000020A0
:101B60001700002010000020440000201200002078
:101B7000140000201600002000B585B0142168462E
:101B8000FEF767FC4FF6FF70009000200321CDE9BF
:101B90000201019069460248FEF78CFD05B000BDC8
:101BA0000008004800B585B014216846FEF751FCD6
:101BB0004FF6FF7000900120019003200390002059
:101BC000029069460248FEF775FD05B000BD0000B1
:101BD0000008004870B5002406462146204600F063
:101BE00049F900F029FA4FF49635304600F0F8F93B
:101BF000641CAC42F9D370BD70B586B01421684640
:101C0000FEF727FC1E48C16C41F00401C164C16CA1
:101C100001F004010591C16C41F00101C164C16C86
:101C200001F001010591C16C41F00201C164C06C79
:101C3000032500F0020005904FF4487001240026AF
:101C400003958DE8510069460E48FEF733FD2002EA
:101C500003958DE851004FF0904469462046FEF709
:101C600029FDFFF79FFFA06940F48070A06105483F
:101C70001830016841F40871016006B070BD0000C1
:101C80000010024000040048203AD2B2034B02EB9D
:101C9000420203EB021200F019B800005A2B0008B0
:101CA000F0B50E460746002540F23F1407E02146F6
:101CB0003846FFF7E9FF103C6D1CA4B2761C327861
:101CC000002A01D0142DF2D3F0BD00002DE9F04719
:101CD00091468A460026044600F0CCF8DFF84080A2
:101CE000012700BF00F0A8F95FF0000539F81600E1
:101CF00007FA05F10842404601D1408800E000881B
:101D000000F06EF96D1C102DF0D3641CE4B2514646
:101D1000204600F0AFF8761C182EE3D3BDE8F0871C
:101D20003C00002010B5FFF767FF002000F05AF8D4
:101D3000084CA080A088A0F50241303906D000F000
:101D400065FB002000F04EF8A08010BD00F0D5FA31
:101D5000F7E700003C00002070B5054600F06CF984
:101D600000244FF4C86600BF35F8140000F038F9BD
:101D7000641CB442F8DB70BD2DE9F0410646104406
:101D8000401E9846C7B2EF2E00D9EF26EF2F00D99C
:101D9000EF27C1F58C7084B204EB0800401E85B2B9
:101DA0004FF4A071481E8C4200D304468D4200D3EC
:101DB00005463146502000F06DF93946512000F0BB
:101DC00069F92146522000F065F92946532000F0B8
:101DD00061F904EB0800401E81B23046BDE8F041D5
:101DE00000F048B870B51D490A6842F400720A60F4
:101DF0000A6842F480720A60184C103C226842F073
:101E000020022260164A1060086840F02000086036
:101E100000BF00BF00BF206840F0200020602068A5
:101E200040F480702060FFF7A7FE4FF09041886A71
:101E300040F48070886200BF00BF00BF0848001FE8
:101E4000006885B2886940F480708861FFF7AAFE57
:101E5000206840F400702060284670BD28040048C7
:101E60001408004801B5BDF800000149488008BDCC
:101E70003C00002010B50C460146202000F00AF975
:101E80002146BDE81040212000F004B970B51D4680
:101E90000E460446904203D3A01A401C81B200E0D3
:101EA0000021502000F0F6F82146512000F0F2F811
:101EB000AE4203D3701B401C81B200E000215220CF
:101EC00000F0E8F83146532000F0E4F831462046AF
:101ED000BDE87040FFF7CEBF01B5BDF80000014975
:101EE000088008BD3C0000202DE9F84FDFF88CB0D9
:101EF000DFF88C9000254FF03C084FF04B0A05EBC3
:101F0000C50000EB05110AEB410705EB8501002434
:101F100001EB0B06C4EBC40000EB400108EB4100F1
:101F200081B22823F8B21A46FFF726FF315D09EB8C
:101F300081004068FFF710FF641C052CEADB6D1C74
:101F4000032DDCDB00F03CF80C4C0EA1143C1448D3
:101F50002269FEF7B5F912491820FFF7A1FE207893
:101F600000906378A2780FA10D48FEF7A9F9BDE8AB
:101F7000F84F0B490020FFF793BE00002C00002013
:101F8000540000202020202020202020636F696E34
:101F90003A2564202020202020202020000000005E
:101FA000D4000020202020202054696D653A25644B
:101FB0003A25643A2564202020202020202020007B
:101FC00000B54FF4A073F022591EEF20FFF75EFF1B
:101FD00041F2180103205DF804EB00F05BB800004B
:101FE000134A116841F400711160114910390B68EE
:101FF00043F480730B600B6843F020030B600D4BC0
:102000001860106840F02000106000BF00BF00BFE3
:10201000086840F020000860086840F4807008609C
:1020200000BF00BF00BF086840F400700860704740
:1020300028040048140800481449086840F4007057
:102040000860086840F48070086010481038026822
:1020500042F0200202600E4B22221A600A6842F00F
:1020600020020A6000BF00BF00BF016841F02001EC
:102070000160016841F48071016000BF00BF00BFD2
:10208000016841F4007101607047000028040048B5
:1020900014080048184B10B51A6842F400721A6010
:1020A0001A6842F480721A60134A103A146844F0B5
:1020B00020041460114C2060186840F02000186063
:1020C00000BF00BF00BF106840F020001060106823
:1020D00040F4807010602160186840F020001860A3
:1020E00000BF00BF00BF106840F020001060106803
:1020F00040F48070106010BD2804004814080048A7
:1021000010B501224FF47F410748FEF7FCFB074C56
:10211000012204212046FEF7F6FB20460022BDE8FE
:1021200010400421FEF7EFBB00080048000C0048F7
:1021300070B5124D044601224FF47F412846FEF748
:10214000E2FB0F4E012204213046FEF7DCFB0022A9
:1021500004213046FEF7D7FB210200222846FEF775
:10216000D2FB012204213046FEF7CDFB3046BDE80C
:10217000704000220421FEF7C6BB000000080048A2
:10218000000C00480148C078FFF7D2BF18000020BB
:10219000F0B587B014216846FEF75BF92D48C16C95
:1021A00041F00401C164C16C01F004010591C16CEE
:1021B00041F02001C164C16C01F020010591C16CA6
:1021C00041F00101C164C16C01F001010591C16CD4
:1021D00041F00201C164C16C01F002010591C16CC2
:1021E00041F00801C164C06C1B4E00F008004FF4C0
:1021F0007F440590002221463046FEF784FB174FAE
:10220000002204213846FEF77EFB0125CDE900457A
:1022100000240294694630460394FEF74BFACDE958
:10222000005469464FF090400295FEF743FA0720AC
:102230008DE8310069460A48FEF73CFA0420009018
:10224000CDE90154694638460394FEF733FA07B0E6
:10225000F0BD00000010024000080048000C0048DB
:1022600000040048084810B506490160002141609B
:10227000FFF723F9002803D0BDE81040FEF705BAA8
:1022800010BD0000000806507400002010B588B092
:102290000024174800940194029403940494059434
:1022A0004FF08041069401600921C0E9011441F614
:1022B0003F71C0E903148461FFF7B9F908B1FEF773
:1022C000E4F94FF48050009069460948FFF738FA66
:1022D00008B1FEF7DAF9049404A905480694FFF75B
:1022E00057F9002801D0FEF7D0F908B010BD000062
:1022F00088000020FEE7FEE7704730B5012100208E
:10230000FFF7C8FE4FF47A70FEF7B1F90021012003
:10231000FFF7C0FE41F290711020FFF7BBFE4FF4B3
:102320001C516020FFF7B6FE01216120FFF7B2FECD
:1023300002214620FFF7AEFE48F210011320FFF7FE
:10234000A9FE48F2FE011220FFF7A4FE4FF4A0619F
:102350000220FFF79FFE41F230010320FFF79AFEB3
:1023600040F2033421463020FFF794FE214631200D
:10237000FFF790FE21463220FFF78CFEE51E29462E
:102380003320FFF787FE03213420FFF783FE214629
:102390003520FFF77FFE14213620FFF77BFE214614
:1023A0003720FFF777FE21463820FFF773FE2146DE
:1023B0003920FFF76FFE29463A20FFF76BFE032115
:1023C0003B20FFF767FE21463C20FFF763FE4FF4FA
:1023D000A0513D20FFF75EFE4FF400719220FFF701
:1023E00059FE21469320FFF755FE40F60D0190203F
:1023F000FFF750FE41F218010320FFF74BFEBDE846
:10240000304040F273110720FFF744BE10B543F28D
:102410000801E320FFF73EFE1221E720FFF73AFE16
:1024200041F23121EF20FFF735FE00210120FFF7B7
:1024300031FE4FF4E0610220FFF72CFE41F2300143
:102440000320FFF727FE00210420FFF723FE40F2C0
:1024500007210820FFF71EFE00210920FFF71AFEC2
:1024600000210A20FFF716FE00210C20FFF712FEC4
:1024700000210D20FFF70EFE00210F20FFF70AFEBE
:1024800000211020FFF706FE07211120FFF702FEB2
:1024900000211220FFF7FEFD00211320FFF7FAFDB7
:1024A000C820FEF7F5F841F290611020FFF7F2FD29
:1024B00040F227211120FFF7EDFD3220FEF7E8F86A
:1024C0001D211220FFF7E6FD3220FEF7E1F84FF460
:1024D00000611320FFF7DEFD14212920FFF7DAFD4C
:1024E0000B212B20FFF7D6FD3220FEF7D1F800217B
:1024F0002020FFF7CFFD00212120FFF7CBFD072192
:102500003020FFF7C7FD40F207713120FFF7C2FD11
:1025100006213220FFF7BEFD40F204713520FFF79F
:10252000B9FD41F604713620FFF7B4FD04213720D0
:10253000FFF7B0FD00213820FFF7ACFD40F2067137
:102540003920FFF7A7FD40F201713C20FFF7A2FD03
:102550000F213D20FFF79EFD00215020FFF79AFD3F
:10256000EF215120FFF796FD00215220FFF792FD49
:1025700040F23F115320FFF78DFD4FF41C516020B6
:10258000FFF788FD01216120FFF784FD00216A200B
:10259000FFF780FD00218020FFF77CFD00218120D6
:1025A000FFF778FD00218220FFF774FD00218320D2
:1025B000FFF770FD00218420FFF76CFD00218520CE
:1025C000FFF768FD10219020FFF764FD00219220A5
:1025D000FFF760FD03219320FFF75CFD4FF4887146
:1025E0009520FFF757FD00219720FFF753FD0021AD
:1025F0009820FFF74FFD41F218010320FFF74AFD35
:10260000BDE8104040F273110720FFF743BD000002
:102610000148FEF728BF0000740000207047FEF755
:102620007DB910B594B038216846FDF712FF14212A
:102630000EA8FDF70EFF4FF40070FEF701FA2120FF
:1026400000904FF480300190012006900220032476
:10265000CDE907041421CDE90A100C900D900994DE
:102660006846FEF7BDFC08B172B6FEE70F20CDE963
:102670000E04002010901190129002210EA8FEF777
:1026800089FB002801D072B6FEE714B010BD00002F
:102690000248016841F470010160704788ED00E074
:1026A0000148FFF7CEB80000880000202DE9F04374
:1026B0000268264B264D274E274C4FF08049984202
:1026C00007D0484505D0A84203D0B04201D0A0426F
:1026D00003D122F070074A683A43204FDFF880C0E8
:1026E000DFF8808098420DD048450BD0A84209D031
:1026F000B04207D0A04205D0B84203D0604501D017
:10270000404503D122F44075CA682A434D6922F03E
:1027100080022A4302608A68C2620A688262984222
:1027200007D0A04205D0B84203D0604501D0404553
:1027300001D109690163012141610169C90703D020
:10274000016921F001010161BDE8F083002C014025
:1027500000040040000800400034014000400140F7
:10276000004401400048014010B5846842EA032259
:1027700024F47F440A432243826010BD8268034BE5
:102780001A400A4342F00701816070478FFFCFFF74
:1027900010B5036A046A24F001040462846924F019
:1027A000F00444EA021423F00A020A43846102623C
:1027B00010BD10B5036A046A24F010040462846931
:1027C00023F0A00324F4704444EA023243EA0111E6
:1027D0008261016210BDFEE70907090E002804DBD3
:1027E00000F1E02080F80014704700F00F0000F1C5
:1027F000E02080F8141D7047F0B599420BD80025F1
:102800005E1E0EE0002409E0475D12F804C0674533
:1028100006D0B44201D10020F0BD641C9C42F3DB21
:102820006D1C8D42EEDB0120F0BD00002DE9F04370
:1028300015468846814600240B4E0C4F0FE0305D54
:10284000414600EB400007EB8000437A426848466F
:10285000FFF7D2FF10B10120BDE8F083641CAC4249
:10286000EDDB0020F8E70000F7000020C03D000885
:1028700010B5FFF787FCFFF737FB0F4CA068FFF799
:10288000D7F8207118B1012801D100F007F921789B
:1028900000203C2903D320706178491C6170617865
:1028A0003C2903D36070A178491CA170A178182934
:1028B00000D3A07010BD0000180000202DE9F047E3
:1028C000FFF71EFCFFF72EFA6420FDF7E1FE31480A
:1028D000FEF7FAFE012204212F48FEF714F800202B
:1028E000FFF7C0FA4FF6FF70FFF7F6FA0020FFF788
:1028F00071F96420FDF7CCFE0025DFF8A090DFF829
:10290000A0802E4606EB8601002401EB090700BFDC
:1029100000F05AF8385508F805006D1C641CEDB23B
:10292000052CF5DB761C032EECDB1E4C1C484FF40B
:10293000486632461E306168FDF746FD32461A4849
:10294000A168FDF741FD32461848E168FDF73CFDFE
:10295000324617482169FDF737FD3246154861694F
:10296000FDF732FDA569324629461348FDF72CFDD7
:10297000E469324621461148FDF726FD32462946D4
:102980000F48FDF721FD32462146BDE8F0470D48CE
:10299000FDF71ABD88000020000C00482C00002024
:1029A000E800002054000020860D0020061A0020B8
:1029B0008626002006330020863F0020064C00209B
:1029C000865800200665002010B521492148FEF7F1
:1029D0000BFD1F484FF47A710C38C068B0FBF1F260
:1029E00001FB1202C22A01D2002010BDB0FBF1F29D
:1029F00001FB1202B2F5C27F01D2012010BDB0FB73
:102A0000F1F201FB120240F223239A4201D202208A
:102A100010BDB0FBF1F201FB120240F2AE239A426C
:102A200001D2032010BDB0FBF1F201FB1202B2F59E
:102A3000497F01D8042010BDB0FBF1F201FB120068
:102A4000B0F5677F01D2052010BD062010BD000043
:102A50002400002074000020FDF768FFFFF7E1FD6F
:102A6000FFF796FBFFF712FCFFF7FCFBFFF726FFD3
:102A7000FFF7FEFEFCE730B50023521E09E0CD183B
:102A8000CC5C6D78045D455DAC4201D0002030BD6A
:102A90005B1C9342F3DB012030BD00002DE9F047C1
:102AA0000025DFF89090DFF890802E4606EB860137
:102AB000002401EB090700BFFFF786FF385508F82F
:102AC00005006D1C641CEDB2052CF5DB761C032E95
:102AD000ECDB184F0020143F184D386106466A7A27
:102AE00015486968FFF7C7FF18B1287A39690844A3
:102AF000386101244FEA050804EB440108EB810525
:102B00003246697A6868FFF791FE70B96A7A0A48B6
:102B10006968FFF7B0FF40B1287A39690844386125
:102B200005480F308455761CF6B2641C232CE3DB79
:102B3000BDE8F0872C000020E8000020C03D000820
:102B40004FF04070E1EE100A7047000000000000F6
:102B5000000001020304060708090000000000004D
:102B60000000000000000000000000000000000065
:102B70000000000000000000000000000000000055
:102B80000000000000000000000000008001800143
:102B9000800180018001800180018001800180012D
:102BA00080018001800100000000800180010000A0
:102BB0000000000000000000000000000000CC0049
:102BC000CC00CC00CC00CC00CC0000000000000009
:102BD00000000000000000000000000000000000F5
:102BE00000000000000000000000000000000000E5
:102BF000000000000000600C600C600C3006300625
:102C0000FE1FFE1F300638071803FE1FFE1F1803A5
:102C100018038C018C018C01000000008000E0038F
:102C2000F80F9C0E8C1C8C188C009800F801E007A3
:102C3000800E801C8C188C189C18B80CF00FE003C8
:102C40008000800000000000000000000000000084
:102C50000E181B0C110C11061106110311039B0118
:102C60008E01C038C06C6044604430443044184425
:102C7000186C0C380000000000000000E001F003B8
:102C80003807180618063003F001F000F8009C31F0
:102C90000E33061E061C061C063FFC73F0210000C6
:102CA00000000000000000000000000000000C0018
:102CB0000C000C000C000C000C00000000000000D8
:102CC0000000000000000000000000000000000004
:102CD00000000000000000000000000000020003EF
:102CE0008001C000C0006000600030003000300093
:102CF0003000300030003000300060006000C00064
:102D0000C0008001000300020000000020006000FD
:102D1000C0008001800100030003000600060006D9
:102D200000060006000600060006000300038001FE
:102D30008001C000600020000000000000000000D2
:102D4000000000000000C000C000D806F807E00145
:102D50003003380700000000000000000000000001
:102D60000000000000000000000000000000000063
:102D700000000000000080018001800180018001CE
:102D8000FC3FFC3F80018001800180018001000048
:102D90000000000000000000000000000000000033
:102DA0000000000000000000000000000000000023
:102DB0000000000000000000000000008001800111
:102DC0000001000180000000000000000000000081
:102DD00000000000000000000000000000000000F3
:102DE0000000E007E0070000000000000000000015
:102DF00000000000000000000000000000000000D3
:102E000000000000000000000000000000000000C2
:102E1000000000000000000000000000C000C00032
:102E2000000000000000000000000000000C000C8A
:102E30000006000600060003000300038003800173
:102E400080018001C000C000C00060006000000080
:102E5000000000000000000000000000E003F00798
:102E6000380E180C0C180C180C180C180C180C1820
:102E70000C180C180C18180C380EF007E0030000A2
:102E800000000000000000000000000000018001C0
:102E9000C001F0019801880180018001800180015A
:102EA000800180018001800180018001800100009B
:102EB000000000000000000000000000E003F80F28
:102EC000180C0C180C1800180018000C0006000351
:102ED0008001C000600030001800FC1FFC1F0000D3
:102EE000000000000000000000000000E001F80702
:102EF000180E0C0C0C0C000C0006C003C007000CD4
:102F0000001800180C180C18180CF807E003000043
:102F1000000000000000000000000000000C000E97
:102F2000000F000F800DC00C600C600C300C180CF2
:102F30000C0CFC3FFC3F000C000C000C000C0000D3
:102F4000000000000000000000000000F80FF80F73
:102F5000180018000C00EC03FC071C0E001C0018E5
:102F6000001800180C181C0C180EF807E0030000DD
:102F7000000000000000000000000000C007F00F8B
:102F8000381C181818000C00CC03EC0F3C0E1C1C4D
:102F90000C180C180C18181C380EF007E003000071
:102FA000000000000000000000000000FC1FFC1FEB
:102FB000000C00060006000380038001C001C00071
:102FC000E000600060007000300030003000000061
:102FD000000000000000000000000000E003F00717
:102FE000380E180C180C180C3806F007F007180CDF
:102FF0000C180C180C180C18380CF80FE003000013
:10300000000000000000000000000000E003F007E6
:10301000380E1C0C0C180C180C181C1C381EF81B35
:10302000E0190018000C000C1C0EF807F00100005D
:103030000000000000000000000000000000000090
:10304000000000000000800180010000000000007E
:10305000000000000000000000008001800100006E
:103060000000000000000000000000000000000060
:10307000000000000000800180010000000000004E
:10308000000000000000000000008001800100013D
:1030900000018000000000000000000000000000AF
:1030A000000000000000000000000010001C800F65
:1030B000E003F8001800F800E003800F001C001087
:1030C0000000000000000000000000000000000000
:1030D00000000000000000000000F81F00000000D9
:1030E0000000F81F000000000000000000000000C9
:1030F00000000000000000000000000000000000D0
:103100000000000000000000000008003800F0018E
:10311000C007001F0018001FC007F001380008009A
:10312000000000000000000000000000E003F80FB5
:10313000180C0C180C180018000C00060003800175
:10314000C000C000C00000000000C000C0000000BF
:103150000000000000000000000000000000E00788
:1031600018180420C229224A114409440944094478
:1031700009221113E20C024004201818E007000095
:103180000000000000000000000000008003800339
:10319000C006C006C006600C600C3018301830182D
:1031A000F83FF83F1C700C600C6006C006C00000C1
:1031B000000000000000000000000000FC03FC0F05
:1031C0000C0C0C180C180C180C0CFC07FC0F0C1831
:1031D0000C300C300C300C300C18FC1FFC070000BD
:1031E000000000000000000000000000C007F01F09
:1031F00038381C300C700660060006000600060019
:103200000600060006600C701C30F01FE00700008E
:10321000000000000000000000000000FE03FE0FA0
:10322000060E061806180630063006300630063040
:103230000630063006180618060EFE0FFE030000C4
:10324000000000000000000000000000FC3FFC3F08
:103250000C000C000C000C000C00FC1FFC1F0C00F0
:103260000C000C000C000C000C00FC3FFC3F0000AC
:10327000000000000000000000000000F83FF83FE0
:1032800018001800180018001800F81FF81F180080
:103290001800180018001800180018001800000086
:1032A000000000000000000000000000E00FF83FF8
:1032B0003C780E6006E007C00300030003FE03FE37
:1032C00003C007C006C00EC03CF0F83FE00F00008E
:1032D0000000000000000000000000000C300C3076
:1032E0000C300C300C300C300C30FC3FFC3F0C3000
:1032F0000C300C300C300C300C300C300C3000002A
:1033000000000000000000000000000080018001BB
:1033100080018001800180018001800180018001A5
:103320008001800180018001800180018001000016
:103330000000000000000000000000000006000681
:10334000000600060006000600060006000600064D
:1033500000060006180618063807F003E001000012
:103360000000000000000000000000000630061809
:10337000060C060606038601C60066007600DE001F
:103380008E0106030606060C0618063006600000CD
:1033900000000000000000000000000018001800FD
:1033A000180018001800180018001800180018005D
:1033B00018001800180018001800F81FF81F000067
:1033C0000000000000000000000000000EE01EF001
:1033D0001EF01EF036D836D836D836D866CC66CC35
:1033E00066CCC6C6C6C6C6C6C6C686C386C30000E9
:1033F0000000000000000000000000000C301C3045
:103400003C303C306C306C30CC30CC308C310C33B8
:103410000C330C360C360C3C0C3C0C380C300000D9
:10342000000000000000000000000000E007F81F9E
:103430001C380E70066003C003C003C003C003C085
:1034400003C003C006600E701C38F81FE0070000C0
:10345000000000000000000000000000FC0FFC1F46
:103460000C380C300C300C300C300C18FC1FFC07E6
:103470000C000C000C000C000C000C000C000000F8
:10348000000000000000000000000000E007F81F3E
:103490001C380E70066003E003C003C003C003C005
:1034A00003C007E006630E3F1C3CF83FE0F700C096
:1034B000000000000000000000000000FE0FFE1FE2
:1034C00006380630063006300638FE1FFE070603B3
:1034D0000606060C061806180630063006600000C0
:1034E000000000000000000000000000E003F80FF2
:1034F0001C0C0C180C180C001C00F803E00F001E2C
:103500000038063006300E301C1CF80FE0070000B3
:10351000000000000000000000000000FE7FFE7FB1
:103520008001800180018001800180018001800193
:103530008001800180018001800180018001000004
:103540000000000000000000000000000C300C3003
:103550000C300C300C300C300C300C300C300C308B
:103560000C300C300C300C301818F81FE00700003D
:1035700000000000000000000000000003600630B2
:10358000063006300C180C180C18180C180C380ED5
:1035900030063006700760036003C001C001000000
:1035A0000000000000000000000000000360C36194
:1035B000C361C3616633663366336633663366332D
:1035C0006C1B6C1B6C1B2C1A3C1E380E380E00003A
:1035D0000000000000000000000000000FE00C7080
:1035E00018303018700C600EC00780038003C003D1
:1035F000E006700C301C18180C300E6007E000005C
:1036000000000000000000000000000003C0066091
:103610000C301C383818300C6006E007C0038001FD
:103620008001800180018001800180018001000013
:10363000000000000000000000000000FC7FFC7F94
:10364000006000300018000C000600038001C0007C
:103650006000300018000C000600FE7FFE7F0000B6
:10366000000000000000000000000000E003E00394
:10367000600060006000600060006000600060004A
:10368000600060006000600060006000600060003A
:1036900060006000E003E003000000003000300044
:1036A000600060006000C000C000C000C001800178
:1036B00080018001000300030003000600060000F3
:1036C000000000000000000000000000E003E00334
:1036D00000030003000300030003000300030003D2
:1036E00000030003000300030003000300030003C2
:1036F00000030003E003E003000000000000C0013D
:10370000C00160036003600330063006180C180C1B
:1037100000000000000000000000000000000000A9
:103720000000000000000000000000000000000099
:103730000000000000000000000000000000000089
:10374000000000000000000000000000FFFFFFFF7D
:103750000000000000000000000000000C000C0051
:103760000C000C000C000C00000000000000000029
:103770000000000000000000000000000000000049
:103780000000000000000000000000000000000039
:10379000000000000000F003F8071C0C0C0C000FE8
:1037A000F00FF80C0C0C0C0C1C0FF80FF0180000AC
:1037B00000000000000000000000000018001800D9
:1037C000180018001800D803F80F380C181818182B
:1037D0001818181818181818380CF80FD803000003
:1037E00000000000000000000000000000000000D9
:1037F000000000000000C003F007300E180C180095
:10380000180018001800180C300EF007C003000054
:103810000000000000000000000000000018001878
:10382000001800180018C01BF01F301C18181818BA
:103830001818181818181818301CF01FC01B000092
:103840000000000000000000000000000000000078
:10385000000000000000C003F00F300C1818F81F23
:10386000F81F180018003818301CF00FC0070000AF
:10387000000000000000000000000000800FC00FEA
:10388000C000C000C000F007F007C000C000C000CA
:10389000C000C000C000C000C000C000C0000000E8
:1038A0000000000000000000000000000000000018
:1038B000000000000000E00DF80F180E0C0C0C0CBE
:1038C0000C0C0C0C0C0C0C0C180EF80FE00D000C72
:1038D0000C0C1C06F807F00100000000180018008E
:1038E000180018001800D807F80F381C18181818F6
:1038F0001818181818181818181818181818000078
:10390000000000000000000000000000C000C00037
:10391000000000000000C000C000C000C000C000E7
:10392000C000C000C000C000C000C000C000000057
:10393000000000000000000000000000C000C00007
:10394000000000000000C000C000C000C000C000B7
:10395000C000C000C000C000C000C000C000C00067
:10396000C000C000F8007800000000000C000C004F
:103970000C000C000C000C0C0C060C038C01CC0091
:103980006C00FC009C018C030C030C060C0C00006A
:10399000000000000000000000000000C000C000A7
:1039A000C000C000C000C000C000C000C000C00017
:1039B000C000C000C000C000C000C000C0000000C7
:1039C00000000000000000000000000000000000F7
:1039D0000000000000007C3CFF7EC7E383C183C180
:1039E00083C183C183C183C183C183C183C10000FB
:1039F00000000000000000000000000000000000C7
:103A00000000000000009807F80F381C181818185C
:103A10001818181818181818181818181818000056
:103A20000000000000000000000000000000000096
:103A3000000000000000C003F00F300C1818181828
:103A40001818181818181818300CF00FC0030000B8
:103A50000000000000000000000000000000000066
:103A6000000000000000D803F80F380C18181818D0
:103A70001818181818181818380CF80FD803180048
:103A800018001800180018000000000000000000D6
:103A9000000000000000C01BF01F301C1818181890
:103AA0001818181818181818301CF01FC01B001808
:103AB00000180018001800180000000000000000A6
:103AC000000000000000B007F0037000300030007C
:103AD0003000300030003000300030003000000096
:103AE00000000000000000000000000000000000D6
:103AF000000000000000E003F003380E180C38004E
:103B0000F003C007000C180C380EF007E0030000AB
:103B10000000000000000000000000000000800025
:103B2000C000C000C000F007F007C000C000C00027
:103B3000C000C000C000C000C000C0078007000077
:103B40000000000000000000000000000000000075
:103B50000000000000001818181818181818181875
:103B60001818181818181818381CF01FE019000039
:103B70000000000000000000000000000000000045
:103B80000000000000000C18180C180C180C30066F
:103B900030063006600360036003C001C00100000E
:103BA0000000000000000000000000000000000015
:103BB000000000000000C141C141C3616363636351
:103BC00063633636363636361C1C1C1C1C1C000043
:103BD00000000000000000000000000000000000E5
:103BE0000000000000001C38381C300C6006600328
:103BF0006003600360036006300C381C1C38000052
:103C000000000000000000000000000000000000B4
:103C10000000000000001830301830187018600CD8
:103C2000600CE00CC006C0068003800380038001A6
:103C30008001C001F00070000000000000000000E2
:103C4000000000000000FC1FFC1F000C0006000329
:103C50008001C000600030001800FC1FFC1F000045
:103C600000000000000000000000000000038001D0
:103C7000C000C000C000C000C000C0006000600004
:103C8000300060004000C000C000C000C000C000A4
:103C9000C0008001000300000000000080018001DE
:103CA000800180018001800180018001800180010C
:103CB00080018001800180018001800180018001FC
:103CC0008001800180018001000000006000C000D0
:103CD000C001800180018001800180010003000398
:103CE0000006000300018001800180018001800145
:103CF0008001C00060000000000000000000000023
:103D000000000000000000000000F010F81F080F85
:103D100000000000000000000000000000000000A3
:103D20000000000000000000000000010203040584
:103D3000060708090A0B0C0D0E0102030506080907
:103D40000B0C0D000102030406080C0206080A0B06
:103D50000C0D0E000406080C0206080A0E000102F3
:103D6000030405060708090A0B0C0D0E00010203E7
:103D70000102030405060708060708090A0B0C0DD3
:103D80000B0C0D0E00060C01070D02080E02060AB0
:103D900003070B04080C00050A01060B02070C03BD
:103DA000080D04090E0001020102030203040506C6
:103DB000070607080708090A0B0C0B0C0D0C0D0E63
:103DC000E09700082A3D00080A0F0000D497000879
:103DD000393D0008080A0000E8970008433D000844
:103DE00007080000CC9700084B3D000807080000BA
:103DF000D8970008533D000804050000DC97000830
:103E0000583D000804050000EC9600085D3D0008E0
:103E10000305000014970008623D00080305000038
:103E20003C970008673D000803050000F496000871
:103E30006C3D0008020400001C970008703D00085B
:103E40000204000044970008743D000802040000CA
:103E500064970008783D0008020400008497000879
:103E60007C3D000802040000A4970008803D000883
:103E700002040000E4960008843D000801030000ED
:103E80000C970008873D00080103000034970008E4
:103E90008A3D0008010300005C9700088D3D000882
:103EA000010300007C970008903D0008010300001A
:103EB0009C970008933D0008010300000497000848
:103EC000963D0008010300002C970008993D00086A
:103ED00001030000549700089C3D00080103000006
:103EE000749700089F3D00080103000094970008A4
:103EF000A23D000801030000FC960008A53D000853
:103F00000103000024970008A83D000801030000F9
:103F10004C970008AB3D0008010300006C970008B7
:103F2000AE3D0008010300008C970008B13D000879
:103F300001030000AC970008B43D00080103000035
:103F4000B4970008B73D000801030000BC970008C3
:103F5000BA3D000801030000C4970008BD3D0008F9
:103F6000010300000000000000000000000000004D
:103F70000000000000000000000000000000000041
:103F80000000000000000000000000000000000031
:103F90000000000000000000000000000000000021
:103FA0000000000000000000000000000000000011
:104200004008000000000000000000000000000066
:10421000000000000000000000000000000000009E
:10422000000000000000000000000000000000008E
:10423000000000000000000000000000000000007E
:1042400000000000000000000000000000008110DD
:10425000A9948A9CAEBDE44100000000000000006B
:10426000000000000000000000000000000000004E
:10427000000000000000000000000000000000003E
:10428000000000000000000000000000000000002E
:10429000000000000000000000000000000000001E
:1042A000E45A4CC632EFC9C5034200000121413136
:1042B00001210000000000000000000000000000DC
:1042C00000000000000000000000000000000000EE
:1042D00000000000000000000000000000000000DE
:1042E00000000000000000000000000000000019B5
:1042F000415BE17B45CE2AF70AF7A7F6C9FEA9FE86
:10430000CAFECAFEEADD0794222900000000000070
:10431000000000000000000000000000000000009D
:10432000000000000000000000000000000000008D
:10433000000000000000000000000000E221E34B4C
:10434000204BA09C64CE28EF28F709FFEAFEE9FE87
:10435000C9FECAFEECFE0EFFEDFE457B000000002C
:10436000000000000000000000000000000000004D
:10437000000000000000000000000000000000003D
:104380000000000000000000E0104333E43B024462
:10439000214460ADC5DE07EFA2E682EEC3F6C4FE9F
:1043A000A5FE84FE64F666F6ECFE0CFF48C581109F
:1043B00000000000000000000000000000000000FD
:1043C00000000000000000000000000000000000ED
:1043D000000000000000422A812BC433444C4144B9
:1043E000013C609DC4DE07EFA2E681EEA3F6A3FECA
:1043F000A3FE82F683F663F687FE0DFFECFE87D5FB
:10440000A1180000000000000000000000000000F3
:10441000000000000000000000000000000000009C
:10442000000000002743695426444744624C40443E
:10443000213C409DE5DE48EFE4EE81EEA2F6C3FEAE
:10444000C3FEC3FEC4FEA4FEA4FE85FECBFEEDFEAD
:1044500088D54008000000000000000000000000B7
:10446000000000000000000000000000000000004C
:1044700000008332484C684C874C874C603C403C81
:10448000203C409DC4DE49EF05F781EE81F6A2F69F
:10449000C4FEE5FEC5FEC5FEA4FE63F665FEECFEA9
:1044A000CCFEC58B000000000000000000000000F2
:1044B00000000000000000000000000000000000FC
:1044C000C32169542744253C663CA54C403C603CD4
:1044D000203C40A5A4DE27F7E5F660EE40EE40F66E
:1044E000A3FEC6FEE8FEE9FEA5FE82FE83F666F6A2
:1044F000CCFECBFE422900000000000000000000BE
:10450000000000000000000000000000000040006B
:10451000084C484C253C033466448244603C603C73
:10452000604480BDA4E607F7E4F661F660F660F645
:10453000A2FEC5FEE8FEEAFEC6FEA4FEA4FE63F6E9
:10454000C9FE2FFF87AC0000000000000000000043
:104550000000000000000000000000000000012238
:10456000063C463C04342334874C4034603C804451
:10457000C164C0CD63E6A4F6A3F6A2FE83FE82FE6C
:10458000A2FE83FEC8FEE8FEE7FEC5FEC5FEA4FE51
:10459000C7FE0BFF68F640080000000000000000A6
:1045A0000000000000000000000000000000653373
:1045B000263C453C663C8744A54C2034203480444E
:1045C000E17CE0D542EE83F683F6A3FEA3FEA4FED3
:1045D000A3FE61F643F6A6FEE9FEE8FEC6FE84FEF3
:1045E000A5FEECFE87FEE24900000000000000008E
:1045F000000000000000000000000000A1082744A7
:10460000263C2534653CC854423C20342034603C70
:10461000019DA0D501E642F663F662F682F6A5FE9C
:1046200084FE41F600EE63F6C7FEC8FEA4FE82FEDD
:10463000A6FEEBFE65FE64830000000000000000A3
:10464000000000000000000000000000C321263C24
:1046500004342434A84CCA5C423421344134614CC3
:1046600002BD20CD40D5C1E522F620F620F683FE1E
:10467000A5FE83FE62F682FE85FE62F662FE83FE82
:10468000C6FEC8FE46F6259C0000000000000000A3
:10469000000000000000000000000000A219263CFD
:1046A0002534E32B2534664443344234423CE484CD
:1046B00024C502CDC0CC60E5E1F5E0F5E0F541F6BA
:1046C00063FE83FE83FEA4FE83FE41F641F664FE94
:1046D00084FE87FE24F626A40000000000000000EF
:1046E000000000000000000000000000C22126447D
:1046F000263C2434663C443C4334633C423CE683E1
:1047000067CD24D5C2D462E5E3F5E1F5C0F5E0ED6F
:1047100021F641F662FE82FE62FE41F600F6C0ED31
:10472000E1ED25F605F665830000000000000000BD
:104730000000000000000000000000004219884C4A
:104740006744674467442434643C443C812AA1188C
:1047500049C568DD23DD63E5E4F5E2F5E1F5C0F583
:10476000C0F5E0F520F600F621F620F6E0ED60E574
:1047700060E505F606F6645A00000000000000003F
:10478000000000000000000000000000A110684CC4
:10479000674487446844453CC74C664CE0100000C1
:1047A000635A27CDA9DD86E563E5A3EDE3F5E2F5E0
:1047B000A0F5E0F5C0ED80ED60E5C0EDE0F580ED41
:1047C000A0ED46FE06F602290000000000000000F1
:1047D0000000000000000000000000000000833323
:1047E00004340534263C6744E854C5430000000007
:1047F0000000648B68DD68DD24DD64E5E5F5E4F543
:10480000C2F5E1F5C0ED60E520E5C0EDE1F5E1F5CB
:1048100023FE67FE05F6C11800000000000000003E
:104820000000000000000000000000000000412225
:10483000A22BC32BE4336744A854221900000000C4
:1048400000000000849348DD88E566E564E5A4ED9A
:10485000C4EDE3F5E2F5C1F5A1EDA2EDA2EDC1F5E0
:1048600002F625FEE4F566AC000000000000000042
:104870000000000000000000000000000000A00890
:10488000C233E433053C4644632A000000000000C4
:10489000000000000000E37A48DD68E525E586E5D4
:1048A000A6EDC5EDC4EDE4F5E4F5C2F5C2F5E3F51A
:1048B00003F6E3F547FE69FE235200000000000006
:1048C00000000000000000000000000000000000E8
:1048D000422AE43326444754400000000000000010
:1048E0000000000000000000E251E7CC89E5A9EDDE
:1048F000A8EDA7EDA7EDA6EDC6ED07F625FE03F69C
:10490000E2F5C4ED49FE6CFE87B400000000000033
:104910000000000000000000000000000000000097
:104920000000233B474C042A000000000000000068
:10493000000000000000000000006010C47AC7CC36
:1049400048DD67E567E546E546E587E5C6EDE4F55C
:10495000E2F504F648FE6AFE07C50000000000000C
:104960000000000000000000000000000000000047
:1049700000008008854B00000000000000000000DF
:104980000000000000000000000000000000000027
:104990000029A1490162206280416139C27265DD4E
:1049A00005F625F646F648F686830000000000006E
:1049B00000000000000000000000000000000000F7
:1049C00000000000000000000000000000000000E7
:1049D00000000000000000000000000000000000D7
:1049E0000000000000000000000000000000E020C7
:1049F000849326CDA7DD66834008000000000000F8
:104A000000000000000000000000000000000000A6
:104A10000000000000000000000000000000000096
:104A20000000000000000000000000000000000086
:104A30000000000000000000000000000000000076
:104E3000000000000000000000002241E228000005
:104E40000000000000000000000000000000000062
:104E50000000000000000000000000000000000052
:104E60000000000000000000000000000000000042
:104E70000000000000000000000000000000000032
:104E800000000000000000000000625126930000B6
:104E90000000000000000000000000000000000012
:104EA0000000000000000000000000000000000002
:104EB00000000000000000000000000000000000F2
:104EC0000000000000000000000000008008A119A0
:104ED000C0110012221AC119E008C1410793C44948
:104EE00000000000000000000000000000000000C2
:104EF00000000000000000000000000000000000B2
:104F000000000000000000000000000000000000A1
:104F10000000000000000000E0086012200BA74421
:104F2000E84CA63C074DC74C8644266C8462E47B63
:104F300063290000000000000000000000000000E5
:104F40000000000000000000000000000000000061
:104F50000000000000000000000000000000000051
:104F6000000000000000E0118744453CA013A3347A
:104F7000264DE33C033D254D04558133644A8010A2
:104F8000456BE2200000000000000000000000006F
:104F90000000000000000000000000000000000011
:104FA0000000000000000000000000000000000001
:104FB00000008008600A000364348A5DA234A02CDB
:104FC000A02CC12CE23481342124A33BE33900001E
:104FD0006008C66A611000000000000000000000C8
:104FE00000000000000000000000000000000000C1
:104FF00000000000000000000000000000000000B1
:105000004000A63BA84CE11B6124E23CA12C80247B
:10501000801CA12C4024C00BA63CC443633100007B
:1050200000008010876A00000000000000000000FF
:105030000000000000000000000000000000000070
:105040000000000000000000000000000000000060
:105050000012E42B6A650345A02CA024801C601C70
:1050600080242014C00BC0130A5DC653032900001E
:10507000000000004231C5490000000000000000AF
:105080000000000000000000000000000000000020
:105090000000000000000000000000000000C00848
:1050A000E00AC11BE33CC134A124401C801C401C0D
:1050B0000014E013C11303240B5D0553C22000004C
:1050C000000000000000A76A400800000000000087
:1050D00000000000000000000000000000000000D0
:1050E00000000000000000000000000000000012AE
:1050F0000424084DA22C601C601C40142014411C88
:105100000214E1132424452C443345528118000035
:1051100000000000000001292652000000000000ED
:10512000000000000000000000000000000000007F
:10513000000000000000000000000000000000135C
:10514000A8442A55832C20142114411C2114431CEB
:10515000231C8634453484336000C762000000009D
:105160000000000000000000887B0000000000003C
:10517000000000000000000000000000000000002F
:10518000000000000000000000000000A008C11B9B
:10519000242CE21BC00BE00B01140114431C23144C
:1051A00086340C5D45336008000028730000000061
:1051B0000000000000000000635A464A0000C320BF
:1051C000E3280000000000000000000000000000D4
:1051D000000000000000000000000000601A401302
:1051E000C00A00138113800BA00BC10BC113811BDC
:1051F000E42AA221000000000000487B000000001B
:105200000000000000000431847106AA66A945B9B7
:1052100066C149C2C7610000000000000000000034
:10522000000000000000000000000000E01000008E
:10523000000000000000A008C008E008800800008E
:105240000000000000000000A118276B0000000013
:10525000000040088679629821A041B041B862C040
:1052600042C022B825C1C761000000000000000054
:10527000000000000000000000000000000000002E
:105280000000000000000000000000000000A2205C
:105290000371039928A2A779445AE76A0000000025
:1052A00000006569219822A821A841B041C0A3D07F
:1052B0004DEB8EE363C049C26110000000000000A6
:1052C00000000000000000000000000000000000DE
:1052D000000000000000000000000000E328A29091
:1052E00041A862B083A886A9869AE79245416110D9
:1052F0006110E8A142A041A841B041B861C0A2C874
:10530000EFEBF3F409D2C4C0A7590000000000007D
:10531000000000000000000000000000000000008D
:1053200000000000000000000000000065810098FF
:1053300042A882B883C042B821B062B8E5B8C8B10B
:105340004559A390219821A841B041B841B841C026
:1053500046D131EC6ADA83B8498A000000000000C7
:10536000000000000000000000000000000000003D
:10537000000000000000000000002439218842A83D
:1053800021A841B041B861C062C029D26EDB83B8A8
:1053900041A00080219842A821A841B041B841C055
:1053A00062C0C4C883C026C96A9A00000000000019
:1053B00000000000000000000000000000000000ED
:1053C00000000000000000000000A659C4A083B047
:1053D00020A840B041B861C041C009D271ECE4C816
:1053E00021B00080009042A041A841B041B041B836
:1053F00041B862C0C4C8A7C9498A000000000000C3
:10540000000000000000000000000000000000009C
:1054100000000000000000000000E76905A183A86B
:1054200021B040B040B861C041C041C042C0C4C812
:1054300041B0007800882198A4A8A4B8A3B862B8A5
:1054400063C0A4C046C9C8C1C76100000000000015
:10545000000000000000000000000000000000004C
:1054600000000000000000000000A65945A183A82C
:1054700042A841B041B841B841C062C0E4D086D131
:1054800062B0825800786398C4A884A8C4B0C4B835
:10549000E5C005C126C16ABA8218000000000000FC
:1054A00000000000000000000000000000000000FC
:1054B0000000000000000000000004396699C4A04C
:1054C00083A8A3B863B862B863C004D145D146C10C
:1054D00083A0000821504288C4A0C4A0C4A8C5B0BD
:1054E000E5B006B1E8B9A6590000000000000000D0
:1054F00000000000000000000000000000000000AC
:1055000000000000000000000000000086890599EE
:10551000C4A8C4B0C4B883B8A4C025C946C926B9B4
:1055200042580000000000404280C498E5A066A9EF
:10553000C7B949B286510000000000000000000019
:10554000000000000000000000000000000000005B
:10555000000000000000000000000000A2302591C3
:1055600005A1E5A8C4A8A4B0C4B805B926B1E488CB
:10557000000000000000000000102140A360046152
:10558000C3404110000000000000000000000000C7
:10559000000000000000000000000000000000000B
:1055A000000000000000000000000000000061306A
:1055B000C488059905A1E5A005A967A96679000039
:1055C00000000000000000000000000000000000DB
:1055D00000000000000000000000000000000000CB
:1055E00000000000000000000000000000000000BB
:1055F00000000000000000000000000000000000AB
:1056000000084130A35804712561A2280000000061
:10561000000000000000000000000000000000008A
:10562000000000000000000000000000000000007A
:10563000000000000000000000000000000000006A
:10564000000000000000000000000000000000005A
:1058C00000000000000000000000C110E33A034C9B
:1058D000845C845CE44BA43A610800000000000092
:1058E00000000000000000000000610861080000E6
:1058F00000000000000000000000000000000000A8
:105900000000000000000000000000000000000097
:1059100000000000000000000222434CA44C43445D
:105920004344844C4344834C076DA4290000000089
:10593000000000000119E4638585058EC485257D7E
:10594000244B4008000000000000000000000000A0
:105950000000000000000000000000000000000047
:1059600000000000000021118554844CC554A5544A
:105970006444434443446344C554476DA329000031
:105980000000233AC485E27DE27DE37DE37DA375DB
:10599000C37D257D8008000000000000000000009D
:1059A00000000000000000000000000000000000F7
:1059B000000000000000433BE554A44CC554C5540E
:1059C000844CA54C83444344C554E454876400008C
:1059D0002119E48D0286C175E27DE27D0486E37DB6
:1059E000C37DE385035C00000000000000000000B0
:1059F00000000000000000000000000000000000A7
:105A00002232A553044B202B83448444C54C634469
:105A1000844CA44CA44C844CC44C265D46650119AE
:105A2000846C448E2286C175027EE27D037E2486CC
:105A30000486E37D048600000000000000000000F2
:105A40000000000000000000000000008108E67473
:105A5000278E268625868575413C634482446344AF
:105A60006344424463446344C34C05552344012AC0
:105A7000248E65962286E175E275C175E27D027E0F
:105A8000E17D027EE37DC33A2443E2290000000069
:105A9000000000000000000000000000425C0586DD
:105AA000468E458E037E458EA575C24C8144A24428
:105AB0006244423C213C6244A44CA44C01238243F6
:105AC000248644862386E17DE175E275E275227EB7
:105AD000E175E37D846D856D2665266D876CA1106B
:105AE00000000000000000000000212AE37DE27DAC
:105AF00004862486027E44864486C46D803CA1448C
:105B0000C244613C8344634483444344200A835C2D
:105B10002586037E037E037EE1750276E175027EB3
:105B2000E2758365235DE454C55469758975A86C75
:105B3000000000000000000000006264E37DE37DDF
:105B4000037E037E438644864386237E6465A144A8
:105B5000A144823CA244A244A344C12B0002A25C03
:105B6000047E0476E375037EE275E275E275037EDA
:105B7000C36D435DE254A34CC44C8875676D676D7B
:105B800004320000000000000000C37D0386C275DF
:105B90000386037EE275227E227E027E0376435DCB
:105BA000A144A144A144A144A244E133200AC25C1F
:105BB0000376047E047E247EE275E375E275A265B9
:105BC0008365635DE3548344A34C4665676D676DED
:105BD000C75B0000000000000000A37D0386E27D9B
:105BE000E27DE275E175027E01760176227E247EF9
:105BF0002355813CE14CE14C813C81446012A25C24
:105C000004760276247E4486237E0376A36D645D4B
:105C1000635D6465245DE454C34C466D8875676DAF
:105C200047640000000000000000C26C037E047E98
:105C30002386037E027E02760276227E4386237EC0
:105C40004586E24CA13C024DA144613CC022E25495
:105C5000E375E275E275E375037EA36D635D6465CC
:105C6000435D435D04550455045D676D676D676D65
:105C700047640000000000000000A13AE37D248694
:105C8000037EE275237E227E227E227E227E237E7A
:105C9000447E257E8144E14C024D6034E12A435D1F
:105CA000E46DE3750376237E8265635D635D435D2A
:105CB000235D235D0455E454055D4665876DAA7D2B
:105CC00046530000000000000000000082642386AC
:105CD0002386037E2386027E23860376237E237E0D
:105CE000237E45864586803CE144C13C0133435DCB
:105CF000C36DC26D027EC375625D23550255445D5E
:105D0000445D455D445D255D4565866D876D887D97
:105D10004321000000000000000000006008225C39
:105D200024864486658E4586247E4486447E447E51
:105D30004586457E6686257EC044C03C623B8365C1
:105D4000C165017EA265635D225523550355435D00
:105D500023552355035565654665666D8775865BD6
:105D60000000000000000000000000000000000033
:105D7000E129E46C468E4686468646864686457E02
:105D8000457E457E457E4586057EC044224CC16DDC
:105D9000027E815D4155024D034D034D0355235550
:105DA000445D2455245D6665876D8675A65340085D
:105DB0000000000000000000000000006008601902
:105DC0006011A009001A423B234CC55C2775476D42
:105DD0004875877DA56D0676668E248E216D027EC0
:105DE000605D214D2155024D024D024D0255435D2E
:105DF0002355445D435DE464C453C329000000009F
:105E0000000000000000000000008332C55CE45484
:105E1000834C0134C12B01340134423C623C623C6E
:105E2000A244A44C8554A6644675E695858D416DC3
:105E3000814C614CA14CC14CE14CE14CE14CC04C5B
:105E40000155015D0254C231000000000000000055
:105E50000000000000000000C33A055D2665055DF6
:105E6000E454034DE24CC244E24CE24CE24C024D9D
:105E7000E24C224D42558265659686A6C48503860E
:105E8000415D2155004D014D20552155215521558C
:105E900021552155816DC175A374011900000000C1
:105EA000000000000000E110E65C065D265D265D56
:105EB000045524552455035543554355635D625D90
:105EC000625D8365C26D2486E375456D845C2686BC
:105ED000037E615D215521552155625D615D6165DE
:105EE00061656165616DA2758175837D832900009F
:105EF0000000000000006332065D265D255D255D23
:105F00002555255DE35424552355635D635D625D2E
:105F10008265E4750276A265425D8454244CE7757F
:105F20004686037E415D425D4155615D61658065E8
:105F30008065816DA175A275E385C37D658581103E
:105F40000000000000004343075D065D0555255D28
:105F5000255D245D2355435D4255425D8265625D4A
:105F6000E375C26DA265625D425D4354C343A66D95
:105F7000E56D457EE375215D415D61658165806507
:105F800080658065806DA175C37DC37DC27D24530E
:105F90000000000000006443075DE6540555055508
:105FA000445D445D2355635D635D635D8365E375B7
:105FB000C26D8165A165415D415D034C0344A66DE1
:105FC000A56D0576257EE27521552055405D8065DD
:105FD00080656065806D6165A275C37DA175A574DE
:105FE000000000000000C33A065D265DE45403553E
:105FF000245523554355445D635D635DA265A265E9
:10600000A16581658165415D0155A1430344A66D8C
:10601000645DA465C46D247EC275415D415D6165AA
:106020006065806DA06DC175816DA27DA17DC57C0F
:1060300000000000000021190765065D05550455A4
:1060400024552355645D635D6365415D615DC16D8C
:10605000A0658165816D6165C04C00330344866530
:10606000645D8565645DA46D057EA36D215D415D04
:1060700060658065A16DC275E37DC37DC37D246CC1
:106080000000000000000000A4434765255D0455A2
:10609000E354645D6465A365826541554055A16D17
:1060A000A16D816D816D205DA04C0033A554655DAF
:1060B000655D645D435D835DC56DE46DA36D225DCB
:1060C00061656165A27504860486E485C385E44A3A
:1060D000000000000000000080086454245D645D3E
:1060E000435D6465A46DC26DA165615D605D8065A1
:1060F000C275A16DA16D215DE054E12A84546565EE
:106100006665245D445D635D84656465E575A46DC5
:10611000235D4265626DA275E37DC47D6485600880
:10612000000000000000000000008008223BC45C6A
:10613000C464846DE27DE27D8065605D816D806513
:10614000A16DE37DC375826D226D8022A4544565E7
:10615000455D245D2455445D8465646584650676EB
:10616000A575C254015D826DA3756375C2310000CF
:10617000000000000000000000000000000000001F
:10618000634B0486E37D027EA06D6065816DA16D29
:10619000816DC275C37561654464202B44544665A6
:1061A0006665245D2455445D445D8665445DA56D4A
:1061B000067E856D614CC15CA243E01000000000CA
:1061C00000000000000000000000000000000000CF
:1061D000424303862486027EE2756165806DA26D6E
:1061E000806D616DC275C37D4232A03BC23246658F
:1061F0006665455D04552455455D8565455D455D90
:10620000A675278602320000000000000000000092
:10621000000000000000000000000000000000007E
:106220002119C37523862486C1758065806D816DB3
:10623000A16D816DE37D85532022A0434019466DF9
:106240004665455D0455E34C25556665866D455D9F
:1062500045650786C4420000000000000000000001
:10626000000000000000000000000000000000002E
:1062700000006132C27DE485E375A175A16D816D79
:10628000616D6165634B6008A04340320000445477
:106290004665466504550555255D255D245D045517
:1062A000255DA77DE218000000000000000000004E
:1062B00000000000000000000000000000000000DE
:1062C00000000000E01002436254626D4165E26428
:1062D000824B8121000060198054C0100000001121
:1062E000065D4665255D255D4665456546654665F1
:1062F000266D243A000000000000000000000000AD
:10630000000000000000000000000000000000008D
:1063100000000000000000000000600840080000CD
:106320000000000000008043C04B0000000000009F
:106330000011044C2665676D876D676D466D644B73
:10634000C11000000000000000000000000000007C
:10635000000000000000000000000000000000003D
:10636000000000000000000000000000000000002D
:1063700000000000A129016DA02100000000000024
:10638000000000000111022A6432E32981080000A4
