:020000040800F2
:1000000070070020810200085B2100084B190008DE
:10001000592100087F0500083B2600080000000069
:100020000000000000000000000000008124000823
:1000300081050008000000005D21000883240008FD
:100040009B0200089B0200089B0200089B0200081C
:100050009B0200089B0200089B0200089B0200080C
:100060009B0200089B0200089B0200089B020008FC
:100070009B0200089B0200089B0200089B020008EC
:100080009B020008000000009B0200089B02000881
:100090009B0200089B0200089B0200089B020008CC
:1000A0009B0200089B0200089B0200089B020008BC
:1000B000052500089B0200089B0200089B0200081F
:1000C0009B0200089B0200089B0200089B0200089C
:1000D0009B0200089B0200089B0200089B0200088C
:1000E0009B0200089B0200089B0200089B0200087C
:1000F0009B0200089B0200089B0200080000000011
:10010000000000009B020008000000009B020008A5
:100110009B020008000000009B0200089B020008F0
:100120009B0200089B0200089B0200089B0200083B
:100130009B02000800000000000000009B02000875
:100140009B0200089B020008000000000000000065
:10015000000000000000000000000000000000009F
:100160000000000000000000000000009B020008EA
:100170009B020008000000000000000000000000DA
:10018000000000009B0200080000000000000000CA
:10019000000000000000000000000000000000005F
:1001A0000000000000000000752400089B02000809
:1001B0009B0200089B0200089B0200080000000050
:1001C000000000009B02000800000000000000008A
:1001D0009B0200089B02000800F002F800F041F8C2
:1001E0000AA090E8000C82448344AAF10107DA4592
:1001F00001D100F036F8AFF2090EBAE80F0013F0A3
:10020000010F18BFFB1A43F0010318479494000034
:10021000B4940000103A24BF78C878C1FAD85207C5
:1002200024BF30C830C144BF04680C607047000070
:100230000023002400250026103A28BF78C1FBD8EF
:10024000520728BF30C148BF0B607047642900F0D7
:100250007F80002070471FB502F0C8FB1FBD10B59E
:1002600010BD00F052F91146FFF7F5FF02F0D8FA81
:1002700000F070F903B4FFF7F2FF03BC00F078F967
:100280000948804709480047FEE7FEE7FEE7FEE72A
:10029000FEE7FEE7FEE7FEE7FEE7FEE70448054966
:1002A000054A064B70470000F5240008D9010008F4
:1002B00070010020700700207003002070030020F0
:1002C0000FB41CB5074B06AA7B44694600900598FD
:1002D00000F003F90020694600F012F91CBC5DF83B
:1002E00014FB0000350200002DE9F0410E460446E3
:1002F000002020622046E168884730B3252805D0D9
:10030000D4E901219047206A401CF2E7E1682046C9
:1003100000278847050018D0A5F14100192802D808
:1003200020354FF400673246294620462760FFF704
:100330008DFF40B1012804D0F61D26F007060836CF
:10034000D8E7361DD6E72846DAE7206ABDE8F0810F
:100350002DE9F0410646002410687529314616A59E
:1003600010D0AFF30080002802DA404213A507E066
:1003700031688A0701D512A502E0490704D511A505
:10038000012401E0AFF3008000210A2206F12407D6
:1003900009E0B0FBF2FCB0FBF2F302FB1C003030D2
:1003A00078541846491C0028F3D123462A46304683
:1003B000BDE8F04100F032B8000000002D00000060
:1003C0002B000000200000004FF0000200B5134693
:1003D00094469646203922BFA0E80C50A0E80C5065
:1003E000B1F12001BFF4F7AF090728BFA0E80C5016
:1003F00048BF0CC05DF804EB890028BF40F8042B0F
:1004000008BF704748BF20F8022B11F0804F18BF7B
:1004100000F8012B70477047704770472DE9F0478F
:100420000D4699469246044600F124080168880664
:1004300004D5E06921F01001216000E00120A8420C
:1004400001DD471B00E00027A1697A1902EB0900D2
:10045000081AA0612078C00602D42046AFF30080BD
:10046000002608E0D4E901211AF806009047206A26
:10047000401C761C20624E45F4DB2078C0060AD56D
:100480002046AFF3008006E0D4E9012130209047F8
:10049000206A401C2062381EA7F10107F4DC07E047
:1004A000D4E9012118F805009047206A401C206219
:1004B000281EA5F10105F3DC2046AFF3008020786B
:1004C000000602D50220BDE8F0870120FBE700000E
:1004D00001694A1C02610878704700B58FB0CDE908
:1004E00001310021059105497944CDE903101146F8
:1004F0006846FFF7F9FE0FB000BD0000E5FFFFFF03
:100500000A6802F8010B0A607047754600F02CF883
:10051000AE4605006946534620F00700854618B0F0
:1005200020B5FFF7BBFEBDE820404FF000064FF0BE
:1005300000074FF000084FF0000B21F00701AC4618
:10054000ACE8C009ACE8C009ACE8C009ACE8C00937
:100550008D46704710B50446AFF300802046BDE8D5
:100560001040FFF787BE0000004870470C010020D4
:1005700001491820ABBEFEE7260002007047FEE7E7
:100580007047002240F6B83306E00021491C89B2CA
:100590009942FBD3521C92B28242F6D3704772B694
:1005A000FEE7000070B5044600F03CF90546601C0B
:1005B00002D004484068044400F034F9401BA042D3
:1005C000FAD370BD000000202DE9F04FDFF8209233
:1005D000002301260324A9F1040B85B00F2709F19C
:1005E000040AABF1040EFAE006FA03F52A407CD0C7
:1005F00091F804C00CF0030CBCF1010F02D0BCF167
:10060000020F26D1D0F808C0CDF800C04FEA430C45
:1006100004FA0CF8CDF810C0DDF800C02CEA080C84
:10062000CDF800C0D1F80C80DDF810C008FA0CF845
:10063000DDF800C048EA0C08C0F80880D0F804C013
:100640002CEA050C0D79C5F300159D4045EA0C0513
:1006500045600D79ED43AD070ED0C5684FEA4308FC
:1006600004FA08FC25EA0C05D1F808C00CFA08FCCD
:100670004CEA050CC0F80CC00D7905F00305022DFD
:1006800016D1DD0800EB850CCDF808C0DCF8208021
:100690005D074FEAD56C07FA0CF528EA05080D69E5
:1006A00005FA0CF5DDF808C045EA0805CCF820503D
:1006B00005684FEA430CCDF808C004FA0CFC25EAA3
:1006C0000C0591F804C00CF00308DDF808C008FA26
:1006D0000CF848EA0508C0F800804D6815F4403F62
:1006E0007CD0444DD5F860C000E077E04CF0010CC0
:1006F000C5F860C02D6E23F0030C05F001050095D0
:100700003D4D65440295AD684FEA837C4FEA1C7805
:1007100007FA08FC25EA0C05B0F1904F06D0DFF887
:10072000DCC0604505D14FF0010C20E04FF0000C1B
:100730001DE0DFF8CCC0604502D14FF0020C16E09E
:10074000DFF8C0C0604502D14FF0030C0FE0DFF8C6
:10075000B8C0604502D14FF0040C08E0DFF8ACC02F
:10076000604502D14FF0050C01E04FF0060C0CFA89
:1007700008FC4CEA050C029DC5F808C0D9F80050E9
:10078000CC46D1F8048095435FEAC82800D51543CC
:10079000CCF80050DAF80050D446D1F804809543E4
:1007A0005FEA882800D51543CCF80050DBF80050EC
:1007B000DC46D1F8048095435FEA883800D51543BC
:1007C000CCF80050DEF80050F446D1F80480954390
:1007D0005FEAC83800D51543CCF800505B1C0A68A6
:1007E00032FA03F57FF400AF05B0BDE8F08F0000EA
:1007F00008040140001002400000014000040048CD
:1008000000080048000C0048001000480014004890
:100810000069084000D0012070470AB1816170472B
:100820008162704701488068704700000000002026
:1008300002488168426811448160704700000020CE
:1008400010B50024032000F073F80F2000F008F822
:1008500008B1012401E000F025F8204610BD000099
:1008600070B50E4E05460024706898B14FF47A7149
:10087000B1FBF0F00A490968B1FBF0F000F0F7FDB8
:1008800040B9102D06D200222946501E00F030F843
:10089000356000E00124204670BD0000000000200B
:1008A0000C0000200A4882B0016E41F0010101668F
:1008B000016E01F001010091816D41F0805181656F
:1008C000806D00F08050009002B000F0A1B80000F0
:1008D00000100240002809DB00F01F0201219140B6
:1008E0004009800000F1E020C0F8001170470000CE
:1008F000F0B40E4B1B680C46C3F30223C3F107058B
:10090000042D00D90425191D072901D2002300E078
:10091000DB1E012606FA05F1491E214099409E4042
:10092000761E16403143F0BC01F088BE0CED00E0AD
:10093000064900F0070208684FF6FF03184040EA36
:100940000220034A10430860704700000CED00E0ED
:100950000000FA052B492C4B0A6832214A432B49E7
:1009600040B1B0F5007F086829D020F4C06040F4A1
:1009700080602CE00868C0F34120022804D051F8C0
:10098000800F20F4807022E0D1F8800020F4807085
:10099000C1F88000086820F4C06040F4007008606E
:1009A000B2FBF3F0401C00E0401E4A69520501D53D
:1009B0000028F9D1486940050AD503207047C0F3E3
:1009C0004120022806D051F8800F40F48070086062
:1009D00000207047D1F8800040F48070C1F880009A
:1009E000086820F4C06040F400700860B2FBF3F0C7
:1009F000401C00E0401E4A695205DBD50028F9D1B1
:100A0000D8E700000C00002040420F0000700040BA
:100A10000248816841F48041816070470070004065
:100A20002DE9F8430446006800269D4D00035ED57D
:100A3000A86D0027C00008D4A86D40F08050A865BC
:100A4000A86D012700F080500090DFF85892D9F887
:100A5000001041F48071C9F80010FFF7E3FE8046F2
:100A600006E000BFFFF7DEFEA0EB080002282BD84F
:100A7000D9F80000C005F5D5D5F8900010F4407005
:100A800014D0216C814211D0D5F89000D5F8901087
:100A900020F4407041F48031C5F89010D5F89010E2
:100AA00021F48031C5F89010C5F89000C00711D02E
:100AB000FFF7B8FE804641F2883907E0FFF7B2FE43
:100AC000A0EB0801494501D903260BE0D5F89000B9
:100AD0008007F3D5D5F89000216C20F440700843CE
:100AE000C5F890001FB1A86D20F08050A86520784F
:100AF000C00707D0D5F88800616820F003000843DC
:100B0000C5F888002078800707D5D5F88800A16847
:100B100020F00C000843C5F888002078400707D56E
:100B2000D5F88800E16820F030000843C5F8880057
:100B30002078000707D5D5F88800216920F0C0008B
:100B40000843C5F888002078800607D5D5F88800C6
:100B5000616920F440600843C5F8880020784006A9
:100B600007D5D5F88800A16920F440500843C5F89E
:100B700088002078000607D5D5F88800E16920F4C0
:100B800040400843C5F888002088C00507D5D5F83F
:100B90008800216A20F440300843C5F88800208886
:100BA000800507D5D5F88800616A20F44020084305
:100BB000C5F88800208840050FD5D5F88800A16ABF
:100BC00020F440100843C5F88800A06AB0F5801FE3
:100BD00003D1E86840F48010E860208800050FD554
:100BE000D5F88800E16A20F440000843C5F8880081
:100BF000E06AB0F5800F03D1E86840F48010E86047
:100C00002088C0040FD5D5F88800216B20F04070F3
:100C10000843C5F88800206BB0F1807F03D1E868F5
:100C200040F48010E86020884FF0006180040ED509
:100C3000D5F88800626B20F040601043C5F888004A
:100C4000606B884203D1E86840F48010E860208837
:100C500040040ED5D5F88800A26B20F04060104308
:100C6000C5F88800A06B884203D1E86840F4801082
:100C7000E860208800040FD5D5F88800E16B20F0EB
:100C800040500843C5F88800E06BB0F1805F03D1A5
:100C9000E86840F48030E8603046BDE8F883000042
:100CA00000100240007000402DE9F0470E4605009C
:100CB0004FF0000725D0DFF8AC81D8F8000000F035
:100CC0000F00B0420CD2D8F8001021F00F013143D0
:100CD000C8F80010D8F8000000F00F00B04210D1A2
:100CE0002968614CC80741F2883A5AD06868DFF831
:100CF0007C91032808D0022820682DD040050028C8
:100D00002CDB0120BDE8F08720688001F9D5E06880
:100D100000F00302E068C0F30310401C032A19D05E
:100D2000534A00BFB2FBF0F0E268C2F30622504320
:100D3000E268C2F34162521C5200B0FBF2F0484537
:100D400017D9A06810F0F00F0CD0880711D5A8684B
:100D500040B10EE0474AE5E78003D0E700F092F8A3
:100D6000484506D9A06820F0F00040F08000A0605F
:100D70008027A068696820F003000843A060FFF79F
:100D800051FD814606E000BFFFF74CFDA0EB0901D5
:100D900051453AD8A068696800F00C00B0EB810FAB
:100DA000F2D12868810714D5400703D5A06840F424
:100DB000E060A0602878000705D5A06820F46050A6
:100DC00040F4E060A060A068A96820F0F00008434B
:100DD00004E0802F03D1A06820F0F000A060D8F8D4
:100DE0000010404601F00F01B14216D9016821F010
:100DF0000F0131430160FFF715FD074607E000BF13
:100E0000FFF710FDC11B514501D903207AE7D8F83F
:100E1000000000F00F00B042F2D12878400705D55D
:100E2000A068E96820F4E0600843A0602878000723
:100E300006D5A068296920F4605040EAC100A0608E
:100E400000F020F8A1680C4AC1F30311515C01F0D5
:100E50001F01C8400949086009480068BDE8F0471B
:100E6000FFF7FEBC002002400010024000B4C404A2
:100E70000024F40000366E01F62900080C00002062
:100E800000000020184910B58868C0F38102174897
:100E9000012A0BD08A68164BC2F38102022A06D0BF
:100EA0008A68C2F38102032A03D0002010BD1846CD
:100EB00010BDCA6802F00304CA68C2F30312521CD0
:100EC000032C02D0B0FBF2F001E0B3FBF2F0CA68F1
:100ED000C968C2F306225043C1F34161491C49006D
:100EE000B0FBF1F010BD0000001002400024F4003F
:100EF00000366E012DE9F84304007AD02078F84DD1
:100F0000C00747D0A868E96800F00C0001F00301B1
:100F10000C2802D0082817D001E0032914D06068FB
:100F2000B0F5803F17D0B0F5A02F286817D020F477
:100F300080302860286820F4802028606068E0B154
:100F4000FFF770FC064614E02868800322D560682D
:100F50000028D2D01EE0286840F48030EDE740F44D
:100F600080202860F7E700BFFFF75CFC801B642847
:100F700070D828688003F7D50CE0FFF753FC0646CD
:100F800005E000BFFFF74EFC801B6428F0D82868FE
:100F90008003F7D4207880074CD5A868E96800F072
:100FA0000C0001F003010C2802D004280DD001E050
:100FB00002290AD0E068002828682BD040F480700D
:100FC0002860FFF72FFC064619E02868400502D587
:100FD000E068002891D06868217C20F0FE4040EA5B
:100FE00001606860BF480068FFF73AFC002800D144
:100FF00020E072E1FFF716FC801B0228B8D82868B1
:101000004005F7D56868217C20F0FE4040EA016089
:1010100068600FE020F480702860FFF703FC06464C
:1010200005E000BFFFF7FEFB801B0228A0D8286860
:101030004005F7D42078000729D560690028D5F845
:10104000940013D040F00100C5F89400FFF7EAFBCC
:10105000064606E090E000BFFFF7E4FB801B022895
:1010600086D8D5F894008007F6D510E020F001006E
:10107000C5F89400FFF7D6FB064604E0FFF7D2FB65
:10108000801B022878D8D5F894008007F6D4207801
:10109000400761D5A86D0026C00008D4A86D40F0B7
:1010A0008050A865A86D012600F0805000908E4801
:1010B0000168C90511D40168804641F4807101605E
:1010C000FFF7B0FB074604E0FFF7ACFBC01B0228AC
:1010D00052D8D8F80000C005F6D5A068012815D070
:1010E0000528D5F8900016D020F00100C5F8900032
:1010F000D5F8900020F00400C5F89000A06841F2F7
:101100008838B8B1FFF78EFB07460EE0D5F890009F
:1011100040F00100F0E740F00400C5F89000F5E76A
:10112000FFF780FBC11B414526D8D5F8900080070A
:10113000F6D50CE0FFF776FB074604E0FFF772FBFD
:10114000C11B414518D8D5F890008007F6D41EB1D0
:10115000A86D20F08050A8652078800629D5A06968
:101160000028D5F8980013D040F00100C5F8980089
:10117000FFF758FB064606E075E000BFFFF752FB9D
:10118000801B02286FD8D5F898008007F6D510E0AC
:1011900020F00100C5F89800FFF744FB064604E084
:1011A000FFF740FB801B02285DD8D5F89800800728
:1011B000F6D4E069F0B3A968C1F3810103295DD0D9
:1011C0000228286820F08070286003D0FFF72AFBEF
:1011D00004464BE0FFF726FB064604E0FFF722FB40
:1011E000801B02283FD828688001F7D4F4E9080161
:1011F0006FF00F0202EB01110843218A52044908E3
:1012000002EB4151A26841EA02210843217D4FF0DF
:101210007E42490802EB41610843217B40EAC160FC
:10122000E968324A11400843E860286840F080705D
:10123000286000E05EE0E86840F08070E860FFF75A
:10124000F1FA044605E000BFFFF7ECFA001B0228A4
:1012500009D828688001F7D54CE000BFFFF7E2FA13
:10126000001B022802D90320BDE8F883286880010A
:10127000F4D4E8681E490840E8603BE00128F3D058
:10128000E868226A00F00301914226D1616A00F009
:10129000F0020901103991421FD1A26A00F4FE4107
:1012A000B1EB022F19D194F82C2000F07841B1EB6A
:1012B000C26F12D1218E00F4C00249084905A1F580
:1012C0000011914209D194F8341000F0C06049082F
:1012D0004906A1F1007181420CD00120C4E7000051
:1012E0000010024000000020007000400C809F01B0
:1012F000FCFFEEFE0020B7E7704700002DE9F04745
:101300000446007A00278A4601280ED0012525725E
:10131000607A4FF00009012809D00420E06001271D
:1013200084F808903846BDE8F0870220FBE74FF0CC
:10133000020884F80980FFF775FA064611E000BF3D
:10134000FFF770FA801B02280BD920684068C04361
:10135000C00706D06572C4F80C8084F8089001209C
:10136000E1E720684068C043C007E9D12068806891
:101370002061CAF800006572D2E710B50168044622
:101380004868820601D5102002E042060BD50820ED
:10139000E060042060722046FFF7AEFF21686FF026
:1013A0006000486010BDC007FCD0086820F008004D
:1013B0000860206881682161607A0428F2D00120E9
:1013C000607200202072204600F050F810BD70B509
:1013D000040003D0607A002510B105E0012070BD43
:1013E0002572204600F014F802206072206801681F
:1013F000626821F00801114301602068016841F032
:101400000401016001206072E560002070BD0000F1
:1014100010B592B0044644216846FEF7D5FF114945
:10142000206888421BD14FF48040009000200E902D
:101430006846FFF7F5FA08B1FFF7B1F80A48C16C42
:1014400041F08061C164C06C002200F080601190A6
:1014500011465A20FFF74CFA5A20FFF73BFA12B018
:1014600010BD00000008065000100240704710B583
:10147000401EB0F1807F01D3012010BD4FF0E02469
:1014800060610F21601701F0D9F80020A0610720EA
:101490002061002010BD704770477047704770474B
:1014A00070470000F0B590F83C20012A3AD00125A1
:1014B00080F83C50022280F83D2003685A689C68FE
:1014C000194E1A4FB34201D0BB4204D122F4700C22
:1014D0004A6842EA0C02DFF858C002EA0C02D1F86E
:1014E00000C04CEA020CC3F804C00268B2420DD03E
:1014F000B2F1804F0AD00F4B9A4207D00E4B9A425E
:1015000004D0BA4202D00D4B9A4204D1896824F02B
:1015100080031943916080F83D50002180F83C1011
:101520000846F0BD0220F0BD002C0140003401400F
:101530008FFFFFFD00040040000800400040014014
:10154000704710B5040003D094F83D0010B107E0D7
:10155000012010BD002084F83C00204600F022F855
:10156000022084F83D00211D206800F0D1FF0120F9
:1015700084F8480084F83E0084F83F0084F8400076
:1015800084F8410084F8420084F8430084F8440061
:1015900084F8450084F8460084F8470084F83D004C
:1015A000002010BD08B50068B0F1804F12D10A4884
:1015B000816D41F001018165806D002200F0010024
:1015C000009011461C20FFF793F9BDE808401C204D
:1015D000FFF780B908BD00000010024090F83D10F0
:1015E000012901D001207047022180F83D100168D7
:1015F000CA6842F00102CA600068104988420ED0F1
:10160000B0F1804F0BD00E49884208D00D49884276
:1016100005D00D49884202D00C49884207D1816823
:101620000B4A1140062906D0B1F5803F03D001686E
:1016300041F001010160002070470000002C0140D2
:101640000004004000080040003401400040014018
:101650000700010070B5044690F83C000025012801
:1016600014D0012684F83C60022084F83D002268F2
:101670009068364B184020F47F40906008687028CE
:101680002ED010DC10F00F0F03D021E04FF002003D
:1016900070BD4FEA2012072A1AD2DFE802F0525238
:1016A00052524A3840002A4BC21A984249D009DCAB
:1016B000B0F5805F0DD0B0F5005F1CD0B0F1101F09
:1016C00006D13EE0102A3CD0202A3AD0502A38D009
:1016D000012584F83D60002084F83C00284670BD58
:1016E000CB68D1E90121206800F070FF2068816893
:1016F00041F0770109E0CB68D1E90121206800F0D1
:1017000065FF2068816841F480418160E1E7CA6833
:101710004968206800F06EFF5021206806E0CA6822
:101720004968206800F077FF6021206800F058FFCA
:10173000CFE7CA684968206800F05CFF4021206854
:10174000F4E7226801461046F0E7000088FFCEFF6C
:101750002000100070472DE9F04104460068C6687B
:1017600005694FF00007A90713D5B10711D5F91E78
:10177000016101202077206880698007204602D01F
:10178000FFF7E8FF04E000F0B7F8204600F0B5F8F6
:101790002777680716D5700714D521686FF0040005
:1017A0000861022020772068806910F4407F20467D
:1017B00002D0FFF7CFFF04E000F09EF8204600F0D3
:1017C0009CF82777280715D5300713D521686FF0C7
:1017D00008000861042020772068C069800720463F
:1017E00002D0FFF7B7FF04E000F086F8204600F0D3
:1017F00084F82777E80616D5F00614D521686FF02F
:1018000010000861082020772068C06910F4407F2C
:10181000204602D0FFF79EFF04E000F06DF820465E
:1018200000F06BF82777E80708D0F00706D02168AA
:101830006FF001000861204600F060F8280601D42E
:10184000A80408D5300606D521686FF40250086157
:101850002046FFF721FEE80508D5300606D52168A9
:101860006FF4807008612046FFF715FE680608D502
:10187000700606D521686FF040000861204600F030
:1018800063F8A80608D5B00606D521686FF02000D9
:1018900008612046FFF701FEE80208D5F00206D5F0
:1018A00021686FF4801008612046FFF7F8FDA80258
:1018B00008D5B00206D521686FF4001008612046F3
:1018C000FFF7ECFD680208D5700206D521686FF4B9
:1018D000800008612046FFF7E3FD28020AD53002A8
:1018E00008D521686FF4000008612046BDE8F0418A
:1018F000FFF726BEBDE8F0817047704710B500685D
:10190000B0F1804F1CD10F484FF47A728168491CA6
:10191000B1FBF2F38160047802FB131304EB84043F
:10192000B3EB440F01D8012300E000230371B1FBA6
:10193000F2F302FB1311002902D14178491C4170D6
:1019400010BD0000100000207047FEE72DE9F041B7
:10195000394F0646002501213846FEF759FF374C1E
:10196000022160703846FEF753FFE07004213846CC
:10197000FEF74EFF607101214FF09040FEF748FFE7
:10198000E07122784FF47A71012A01D022B10EE081
:10199000627862B9A6600AE06278012A07D1A2687B
:1019A000B21A8A4202D801258A4200D30A25A278B7
:1019B000012A01D022B10EE0E27862B9E6600AE0C5
:1019C000E278012A07D1E268B21A8A4202D80225D7
:1019D0008A4200D314252279012A01D022B10EE0D7
:1019E000627962B926610AE06279012A07D1226927
:1019F000B21A8A4202D803258A4200D31E25A27950
:101A0000012A01D01AB10CE058B9666109E0012839
:101A100007D16269B21A8A4202D804258A4200D3E9
:101A2000282561782170E178A17061792171A07118
:101A30002846BDE8F0810000000400485C0000205A
:101A400000B585B014216846FEF7BEFC4FF6FF7066
:101A5000009000200321CDE902010190694602486F
:101A6000FEF7B2FD05B000BD0008004800B585B026
:101A700014216846FEF7A8FC4FF6FF700090012085
:101A80000190032003900020029069460248FEF76F
:101A90009BFD05B000BD00000008004870B50024A3
:101AA00006462146204600F047F900F0F7F94FF4CA
:101AB0009635304600F0C6F9641CAC42F9D370BDCF
:101AC00070B586B014216846FEF77EFC1E48C16CD6
:101AD00041F00401C164C16C01F004010591C16CC5
:101AE00041F00101C164C16C01F001010591C16CBB
:101AF00041F00201C164C06C032500F002000590B2
:101B00004FF448700124002603958DE85100694682
:101B10000E48FEF759FD200203958DE851004FF065
:101B2000904469462046FEF74FFDFFF79FFFA069EE
:101B300040F48070A06105481830016841F40871D4
:101B4000016006B070BD00000010024000040048B3
:101B5000203AD2B2034B02EB420203EB021200F036
:101B600019B80000C4830008F0B50E4607460025EA
:101B700040F23F1407E021463846FFF7E9FF103CEA
:101B80006D1CA4B2761C3278002A01D0142DF2D339
:101B9000F0BD00002DE9F04791468A460026044634
:101BA00000F0CAF8DFF84080012700BF00F076F9A6
:101BB0005FF0000539F8160007FA05F108424046C3
:101BC00001D1408800E0008800F03CF96D1C102D28
:101BD000F0D3641CE4B25146204600F0ADF8761C08
:101BE000182EE3D3BDE8F0875400002010B5FFF7AE
:101BF00067FF002000F058F8084CA080A088A0F5EE
:101C00000241303906D000F033FB002000F04CF8E0
:101C1000A08010BD00F0A3FAF7E7000054000020F8
:101C200070B5054600F03AF900244FF4C86600BFCD
:101C300035F8140000F006F9641CB442F8DB70BDFE
:101C40002DE9F04106461044401E98460C46C7B2A6
:101C5000EF2E00D9EF26EF2F00D9EF2704EB080075
:101C6000401E85B24FF4A071481E8C4200D304463A
:101C70008D4200D305463146502000F03DF93946EB
:101C8000512000F039F92146522000F035F929465B
:101C9000532000F031F904EB0800401E81B23046B9
:101CA000BDE8F04100F048B870B51D490A6842F43B
:101CB00000720A600A6842F480720A60184C103C94
:101CC000226842F020022260164A1060086840F044
:101CD0002000086000BF00BF00BF206840F0200067
:101CE0002060206840F480702060FFF7A9FE4FF06C
:101CF0009041886A40F48070886200BF00BF00BFD6
:101D00000848001F006885B2886940F480708861C7
:101D1000FFF7ACFE206840F400702060284670BDDC
:101D2000280400481408004801B5BDF80000014926
:101D3000488008BD5400002010B50C460146202004
:101D400000F0DAF82146BDE81040212000F0D4B8B8
:101D500070B51D460E460446904203D3A01A401C9F
:101D600081B200E00021502000F0C6F82146512049
:101D700000F0C2F8AE4203D3701B401C81B200E0F9
:101D80000021522000F0B8F83146532000F0B4F89A
:101D900031462046BDE87040FFF7CEBF01B5BDF823
:101DA00000000149088008BD5400002038B500F04B
:101DB00039F80C4C0CA113482269FEF781FA11493D
:101DC0001820FFF7D1FE60780090A378E2780EA18A
:101DD0000C48FEF775FABDE838400A490020FFF7C5
:101DE000C3BE000010000020202020202020202042
:101DF000636F696E3A256420202020202020202057
:101E000000000000D8000020202020202054696D10
:101E1000653A25643A25643A256420202020202054
:101E20002020200000B54FF4A073F022591EEF20AF
:101E3000FFF78EFF41F2180103205DF804EB00F07C
:101E40005BB80000134A116841F400711160114938
:101E500010390B6843F480730B600B6843F0200368
:101E60000B600D4B1860106840F02000106000BF40
:101E700000BF00BF086840F020000860086840F418
:101E80008070086000BF00BF00BF086840F40070A9
:101E9000086070472804004814080048144908687E
:101EA00040F400700860086840F4807008601048D2
:101EB0001038026842F0200202600E4B22221A60A3
:101EC0000A6842F020020A6000BF00BF00BF01683C
:101ED00041F020010160016841F48071016000BFA0
:101EE00000BF00BF016841F400710160704700004D
:101EF0002804004814080048184B10B51A6842F42A
:101F000000721A601A6842F480721A60134A103A1A
:101F1000146844F020041460114C2060186840F0EC
:101F20002000186000BF00BF00BF106840F0200014
:101F30001060106840F4807010602160186840F0F4
:101F40002000186000BF00BF00BF106840F02000F4
:101F50001060106840F48070106010BD28040048C4
:101F60001408004810B501224FF47F410748FEF7DE
:101F700054FC074C012204212046FEF74EFC20466B
:101F80000022BDE810400421FEF747BC00080048CD
:101F9000000C004870B5124D044601224FF47F41F9
:101FA0002846FEF73AFC0F4E012204213046FEF788
:101FB00034FC002204213046FEF72FFC21020022CF
:101FC0002846FEF72AFC012204213046FEF725FCB4
:101FD0003046BDE8704000220421FEF71EBC000020
:101FE00000080048000C004801480079FFF7D2BF04
:101FF00010000020F0B587B014216846FEF7E4F920
:102000002D48C16C41F00401C164C16C01F00401B0
:102010000591C16C41F02001C164C16C01F0200147
:102020000591C16C41F00101C164C16C01F0010175
:102030000591C16C41F00201C164C16C01F0020163
:102040000591C16C41F00801C164C06C1B4E00F0E9
:1020500008004FF47F440590002221463046FEF7E9
:10206000DCFB174F002204213846FEF7D6FB012582
:10207000CDE9004500240294694630460394FEF7FA
:10208000A3FACDE9005469464FF090400295FEF75F
:102090009BFA07208DE8310069460A48FEF794FA5A
:1020A00004200090CDE90154694638460394FEF7B8
:1020B0008BFA07B0F0BD0000001002400008004895
:1020C000000C004800040048084810B506490160AB
:1020D00000214160FFF77BF9002803D0BDE81040E4
:1020E000FEF75DBA10BD0000000806507800002021
:1020F00010B588B00024174800940194029403940A
:10210000049405944FF08041069401600921C0E9D0
:10211000011441F63F71C0E903148461FFF711FA1D
:1021200008B1FEF73CFA4FF4805000906946094828
:10213000FFF790FA08B1FEF732FA049404A90548B3
:102140000694FFF7AFF9002801D0FEF728FA08B08F
:1021500010BD00008C000020FEE7FEE7704730B5A0
:1021600001210020FFF7C8FE4FF47A70FEF709FA4C
:1021700000210120FFF7C0FE41F290711020FFF70F
:10218000BBFE4FF41C516020FFF7B6FE0121612019
:10219000FFF7B2FE02214620FFF7AEFE48F2100123
:1021A0001320FFF7A9FE48F2FE011220FFF7A4FE5C
:1021B0004FF4A0610220FFF79FFE41F2300103209F
:1021C000FFF79AFE40F2033421463020FFF794FED9
:1021D00021463120FFF790FE21463220FFF78CFE8A
:1021E000E51E29463320FFF787FE03213420FFF741
:1021F00083FE21463520FFF77FFE14213620FFF7AE
:102200007BFE21463720FFF777FE21463820FFF777
:1022100073FE21463920FFF76FFE29463A20FFF76B
:102220006BFE03213B20FFF767FE21463C20FFF7B2
:1022300063FE4FF4A0513D20FFF75EFE4FF40071A6
:102240009220FFF759FE21469320FFF755FE40F6F6
:102250000D019020FFF750FE41F218010320FFF717
:102260004BFEBDE8304040F273110720FFF744BE3B
:1022700010B543F20801E320FFF73EFE1221E720EC
:10228000FFF73AFE41F23121EF20FFF735FE002142
:102290000120FFF731FE4FF4E0610220FFF72CFE32
:1022A00041F230010320FFF727FE00210420FFF751
:1022B00023FE40F207210820FFF71EFE002109201F
:1022C000FFF71AFE00210A20FFF716FE00210C205E
:1022D000FFF712FE00210D20FFF70EFE00210F2058
:1022E000FFF70AFE00211020FFF706FE072111204C
:1022F000FFF702FE00211220FFF7FEFD0021132050
:10230000FFF7FAFDC820FEF74DF941F29061102069
:10231000FFF7F2FD40F227211120FFF7EDFD3220FB
:10232000FEF740F91D211220FFF7E6FD3220FEF7EF
:1023300039F94FF400611320FFF7DEFD1421292045
:10234000FFF7DAFD0B212B20FFF7D6FD3220FEF739
:1023500029F900212020FFF7CFFD00212120FFF7E0
:10236000CBFD07213020FFF7C7FD40F20771312078
:10237000FFF7C2FD06213220FFF7BEFD40F20471D7
:102380003520FFF7B9FD41F604713620FFF7B4FDA3
:1023900004213720FFF7B0FD00213820FFF7ACFD06
:1023A00040F206713920FFF7A7FD40F201713C2091
:1023B000FFF7A2FD0F213D20FFF79EFD00215020D9
:1023C000FFF79AFDEF215120FFF796FD00215220E3
:1023D000FFF792FD40F23F115320FFF78DFD4FF4C0
:1023E0001C516020FFF788FD01216120FFF784FD6B
:1023F00000216A20FFF780FD00218020FFF77CFD8F
:1024000000218120FFF778FD00218220FFF774FD75
:1024100000218320FFF770FD00218420FFF76CFD71
:1024200000218520FFF768FD10219020FFF764FD53
:1024300000219220FFF760FD03219320FFF75CFD50
:102440004FF488719520FFF757FD00219720FFF783
:1024500053FD00219820FFF74FFD41F218010320A2
:10246000FFF74AFDBDE8104040F273110720FFF767
:1024700043BD00000148FEF780BF00007800002047
:102480007047FEF7D5B910B594B038216846FDF70E
:102490009BFF14210EA8FDF797FF4FF40070FEF785
:1024A00059FA212000904FF48030019001200690CD
:1024B00002200324CDE907041421CDE90A100C9071
:1024C0000D9009946846FEF715FD08B172B6FEE757
:1024D0000F20CDE90E0400201090119012900221DF
:1024E0000EA8FEF7E1FB002801D072B6FEE714B09B
:1024F00010BD00000248016841F47001016070479E
:1025000088ED00E00148FFF726B900008C000020AC
:102510002DE9F0430268264B264D274E274C4FF0FD
:102520008049984207D0484505D0A84203D0B04220
:1025300001D0A04203D122F070074A683A43204FED
:10254000DFF880C0DFF8808098420DD048450BD07E
:10255000A84209D0B04207D0A04205D0B84203D06B
:10256000604501D0404503D122F44075CA682A4332
:102570004D6922F080022A4302608A68C2620A68BA
:102580008262984207D0A04205D0B84203D060458D
:1025900001D0404501D1096901630121416101690F
:1025A000C90703D0016921F001010161BDE8F08391
:1025B000002C0140000400400008004000340140AD
:1025C00000400140004401400048014010B58468CB
:1025D00042EA032224F47F440A432243826010BD6E
:1025E0008268034B1A400A4342F00701816070473A
:1025F0008FFFCFFF10B5036A046A24F00104046260
:10260000846924F0F00444EA021423F00A020A4325
:102610008461026210BD10B5036A046A24F01004DC
:102620000462846923F0A00324F4704444EA023273
:1026300043EA01118261016210BDFEE70907090E3C
:10264000002804DB00F1E02080F80014704700F05F
:102650000F0000F1E02080F8141D7047F0B599429A
:102660000BD800255E1E0EE0002409E0475D12F83D
:1026700004C0674506D0B44201D10020F0BD641CFF
:102680009C42F3DB6D1C8D42EEDB0120F0BD0000AF
:102690002DE9F04315468846814600240B4E0C4F29
:1026A0000FE0305D414600EB400007EB8000437ACD
:1026B00042684846FFF7D2FF10B10120BDE8F08321
:1026C000641CAC42EDDB0020F8E70000FB000020BA
:1026D0009881000810B5FFF787FCFFF767FB0F4CE8
:1026E000A068FFF733F90E49087018B1012801D12D
:1026F00000F0B8F8617800203C2903D36070A1781D
:10270000491CA170A1783C2903D3A070E178491C31
:10271000E170E178182900D3E07010BD10000020AE
:10272000740000202DE9F05FFFF71CFCFFF75EFA54
:102730006420FDF737FF3548FEF750FF01220421E2
:102740003348FEF76AF80020FFF7EEFA4FF6FF7005
:10275000FFF724FB0020FFF7A1F96420FDF722FF1B
:10276000DFF8B0B00026DFF8B0A035464FF007091B
:102770000BF1340805EB8501002401EB080725491E
:1027800026480C31FEF7BAFDDBF80C10B1FBF9F26C
:1027900009FB121139550AF80610641C761C052C29
:1027A000EDDB6D1C032DE5DBDFF86890C2460025EC
:1027B0004FF03C084FF04B0B09F1140905EBC50134
:1027C00001EB051205EB850104240BEB420701EB3D
:1027D0000A0600BFC4EBC40000EB400108EB410057
:1027E00081B22823F8B21A46FFF72AFAC4F104008E
:1027F000315C09EB81004068FFF712FA641EE9D5ED
:102800006D1C032DDADBBDE8F09F00008C0000207A
:10281000000C004810000020EC0000207800002090
:10282000FEF70EF8FFF72FFEFFF7E4FBFFF760FC63
:10283000FFF74AFCFFF776FFFFF74CFFFCE730B5E8
:102840000023521E09E0CD18CC5C6D78045D455D17
:10285000AC4201D0002030BD5B1C9342F3DB012071
:1028600030BD00002DE9F84FDFF83C810026DFF88D
:10287000349135464FF0070AA8F1340B05EB85017A
:10288000002401EB0807484948482839FEF736FD7F
:10289000DBF80C10B1FBFAF20AFB1210385509F8FC
:1028A0000600641C761C052CEDDB6D1C032DE5DB9E
:1028B000DFF8F490C24600254FF03C08A9F120094A
:1028C000042405EBC50101EB05114B2202EB410687
:1028D00005EB850101EB0A07C4EBC40000EB4001E6
:1028E00008EB410081B22823F0B21A46FFF7A8F99D
:1028F000C4F10400395C09EB81004068FFF790F9EE
:10290000641EE9D56D1C032DDADB00200746CBF8E9
:1029100010005C460F2226492248FFF790FF10B1B5
:1029200020690A302061DFF88880012508F110084D
:1029300005EB450108EB81063A46717A7068FFF7AE
:10294000A7FE70B9727A17487168FFF778FF40B137
:10295000307A21690844206112480F30C5557F1C28
:10296000FFB26D1C232DE3DBFFF75CFA0D4811A1CC
:1029700014382269FDF7A4FC0A4918201439FFF71E
:10298000F3F8607800900748A378E27810A1143833
:10299000FDF796FCBDE8F84F024914390020FFF717
:1029A000E3B80000EC000020440000207800002084
:1029B000888100082020202020202020636F696E5D
:1029C0003A25642020202020202020200000000024
:1029D000202020202054696D653A25643A25643A08
:1029E0002564202020202020202020004FF040704F
:1029F000E1EE100A70470000000000000000010234
:102A000003040607080900000000000000000000A1
:102A100000000000000000000000000000000000B6
:102A200000000000000000000000000000000000A6
:102A30000000000000000000000000000000000096
:102A40000000000000000000000000000000000086
:102A50000000000000000000000000000000000076
:102A60000000000000000000000000000000000066
:102A70000000000000000000000000000000000056
:102A80000000000000000000000000000000000046
:102A90000000000000000000000000000000000036
:102AA0000000000000000000000000000000000026
:102AB0000000000000000000000000000000000016
:102AC0000000000000000000000000000000000006
:102AD00000000000000000000000000000000000F6
:102AE00000000000000000000000000000000000E6
:102AF00000000000000000000000000000000000D6
:102B000000000000000000000000000000000000C5
:102B100000000000000000000000000000000000B5
:102B200000000000000000008110601000000000A4
:102B30000000000000000000000000000000000095
:102B40000000000000000000000000000000000085
:102B50000000000000000000000000000000000075
:102B60000000000000000000000000000000000065
:102B7000000000002239A2AAE1C202CB24ABC1208E
:102B80000000000000000000000000000000000045
:102B90000000000000000000000000000000000035
:102BA0000000000000000000000000000000000025
:102BB0000000000000000000000000000000000015
:102BC0000000433924CBC2CAC3C2C4C2E3C269CC29
:102BD0006110000000000000000000000000000084
:102BE00000000000000000000000000000000000E5
:102BF00000000000000000000000000000000000D5
:102C000000000000000000000000000000000000C4
:102C10000000E792CBE4A78A40086110649A49D487
:102C200046620000000000000000000000000000FC
:102C30000000000000000000000000000000000094
:102C40000000000000000000000000000000000084
:102C50000000000000000000000000000000000074
:102C6000000068B3CBDC643100000000635928D455
:102C70002A830000000000000000000000000000A7
:102C80000000000000000000000000000000000044
:102C90000000000000000000000000000000000034
:102CA00000000000000000000000000000006118AB
:102CB000223987C3C4E3C1CA03B3A259229AAADC4A
:102CC000475A000000000000000000000000000063
:102CD00000000000000000000000000000000000F4
:102CE00000000000000000000000000000000000E4
:102CF00000000000000000000000634105ABA6D307
:102D000084DB84DB84E384E363DBC3EB47E446BB1F
:102D10008110000000000000000000000000000022
:102D200000000000000000000000000000000000A3
:102D30000000000000000000000000000000000093
:102D40000000000000004008E78AC6DB02D3A0CAEA
:102D5000A0D2C0D200DB20DB41DB83E307E42662A4
:102D60000000000000000000000000000000000063
:102D70000000000000000000000000000000000053
:102D80000000000000000000000000000000000043
:102D9000000000000000298332FE24D300C240C29C
:102DA000A0D2E0D260E344EC45ECA1E362DB27DC97
:102DB000634100000000000000000000000000006F
:102DC0000000000000000000000000000000000003
:102DD00000000000000000000000000000000000F3
:102DE000000000006439B5F6CBE400BAE0B940C297
:102DF000A0CAE0D261E3AEF515FFB3FE67EC82DB5B
:102E000029D481180000000000000000000000002C
:102E100000000000000000000000000000000000B2
:102E200000000000000000000000000000000000A2
:102E3000000000008EB4F5FEE3CAE0B900BA60CA33
:102E4000A0D2E0D281E34BF516FF57FF52FE81E39B
:102E5000AAE4088300000000000000000000000059
:102E60000000000000000000000000000000000062
:102E70000000000000000000000000000000000052
:102E800000002331B5F66EED41BAE0B920C280CA28
:102E9000C0D220DBC2E3EEFD15FF36FFD4FEC3EB4C
:102EA00027E472DD000000000000000000000000C8
:102EB0000000000000000000000000000000000012
:102EC0000000000000000000000000000000000002
:102ED0000000CC9337FFA6DB00BA00BA60C2C0D2B4
:102EE000E0D240DB24ECB3FE15FF16FF51FE82E377
:102EF00084DB76F6A118000000000000000000004E
:102F000000000000000000000000000000000000C1
:102F100000000000000000000000000000000000B1
:102F2000C22075EE11F6A2CA00BA40C280CAC0D251
:102F300020DB81E3E9F4F5FE16FF16FF4CF521DBFB
:102F400084DB97F603290000000000000000000069
:102F50000000000000000000000000000000000071
:102F60000000000000000000000000000000000061
:102F70006A8B37FF28DC40C220BA60C2A0D2E0D200
:102F800020DBC3E30FFE16FF16FF16FF67EC21DB05
:102F900009DC55EEA218000000000000000000004F
:102FA0000000000000000000000000000000000021
:102FB0000000000000000000000000000000E22807
:102FC00054EE52F6E2CA40BA40BA80CAC0D200DB20
:102FD00061E365F4D4FE36FF36FFB4FEC3E321DBC4
:102FE0000EE5B3DD0000000000000000000000005E
:102FF00000000000000000000000000000000000D1
:1030000000000000000000000000000000004DACC7
:1030100016FF89E460C240C260CAA0D2E0D240DBA1
:10302000A2E38BFD16FF36FF36FF10F682E321DBAD
:10303000F3F54EAC000000000000000000000000AE
:103040000000000000000000000000000000000080
:10305000000000000000000000000000666AD0F5DB
:103060004DED43D360C260C280CAC0D220DB61E3B1
:1030700044F4B3FE57FF57FF37FF2BF541DB43DB2B
:10308000B7FEE97A00000000000000000000000028
:103090000000000000000000000000000000000030
:1030A000000000000000000000002562E7DB85D37F
:1030B00085D363D301D3A0CAA0CAE0D220DB61E3E9
:1030C000E8F416FF58FF58FF36FF66EC41DB07DCDB
:1030D000B7FEC55100000000000000000000000025
:1030E00000000000000000000000000000000000E0
:1030F000000000000000A1184993ABDCE7DBA6DB71
:10310000A6DBC5DBA4DB63DB01DBE1D2C0D2E0D20E
:1031100061E3A7F472FE57FF72FEE4EB41E3CCE4F7
:1031200096F62331000000000000000000000000BF
:10313000000000000000000000000000000000008F
:1031400000000000A86AD7EE37FF08DC21BAC0A94A
:10315000E0B100B281C2C1D2E0D200DB00DB00DB13
:1031600020DB21E383E366EC45F462E321DB91EDB0
:1031700055EE81100000000000000000000000007B
:10318000000000000000000000000000000000003F
:1031900000006431B7F638FF32F685D361BA00B269
:1031A000E0B120BA40C280CA01D362DBA2E325ECC1
:1031B00003ECA1EB61E341DB41DB41DBA4E376F609
:1031C000F4E5000000000000000000000000000026
:1031D00000000000000000000000000000000000EF
:1031E00040080CAC8DCC0AC488C305BBC3BAE3C28B
:1031F000E3CA81C280CAC0D242DBC3E345EC6AFDA8
:1032000015FF72F62BEDC5E3C5E3C5E369E4B7FE30
:10321000B3DD00000000000000000000000000001E
:10322000000000000000000000000000000000009E
:10323000E55969B345A242912199019921A162A959
:10324000E2B184C2C4C203C302CB22D346ECCEF5A2
:1032500037FF57FF57FF16FF6DED27E428E40DED0C
:1032600071DD000000000000000000000000000010
:10327000000000000000000000000000000000004E
:10328000443968BBC098C098009920A100A9E0A863
:1032900000A920B180B9C0B921C202B262BAA7CBDD
:1032A000ABDC53F6F6FE58FF16FF09F5E5E36AE4DA
:1032B000CCE4A118000000000000000000000000A5
:1032C00000000000000000000000000000000000FE
:1032D0000000667264BAE0A020A180A9A0B180B10C
:1032E00020B140B180B9E0C100C2A0A820B9A0B10E
:1032F000C2CA25CB8AE4B0F510F6C6F4A2EB65D3BA
:10330000EDE4E551000000000000000000000000B6
:1033100000000000000000000000000000000000AD
:1033200000000000056AC4BA80B1E0B121BA21BA38
:10333000C0B180B1A0B940B1C0A0A0A8C0A800C2CF
:1033400000C2E0C121BAC3CA28DC05E482E302D38B
:103350008CDC8FB4000000000000000000000000C2
:10336000000000000000000000000000000000005D
:103370000000000000002231E6AA82C282C261BAC7
:1033800000B2E0B1E0A8E0B000B1C0A8A0A080B950
:10339000E0C1C0B9A0B960B161A984BA64D3C7DB88
:1033A0000FE5F8FE64390000000000000000000096
:1033B000000000000000000000000000000000000D
:1033C00000000000000000004008A359E5BAE2CA6E
:1033D00081C2E4C2C1B960B1A0C180B920B9E0A87E
:1033E000A0B1A0B980B940B900B1C0A883A105C3FC
:1033F000CDE4D7FEA772000000000000000000002E
:1034000000000000000000000000000000000000BC
:103410000000000000000000000000004008835190
:10342000C4AACCDC019AC6CB6091A2C262C2E0A859
:10343000C0B1C0B1C0B9E0C1E0C160B9C0A001A1D4
:10344000E6BAADDC466200000000000000000000AB
:10345000000000000000000000000000000000006C
:10346000000000000000000000000000000000005C
:103470000000868224C343CB82B2A2BAE3CA42C20E
:10348000E0B1E0B120C2C1D2C1D2E0B900A1E0A058
:1034900082A167C3E55900000000000000000000A1
:1034A000000000000000000000000000000000001C
:1034B000000000000000000000000000000000000C
:1034C0000000022946C303C303C324CB44CB46BB3D
:1034D000C2C2A1C2A0CAE1D2C1D2C0B900A100A19A
:1034E00003AA88BB64410000000000000000000047
:1034F00000000000000000000000000000000000CC
:1035000000000000000000000000000000000000BB
:10351000000000002331A59246BB06ABC559400808
:10352000E2288351247AA492E5A2E6AAE6AA07A398
:103530008782443900000000000000000000000005
:10354000000000000000000000000000000000007B
:10355000000000000000000000000000000000006B
:10356000000000000000000000000000000000005B
:10357000000000000000000000000000000000004B
:1038D0000000000000000000000000002241E2287B
:1038E00000000000000000000000000000000000D8
:1038F00000000000000000000000000000000000C8
:1039000000000000000000000000000000000000B7
:1039100000000000000000000000000000000000A7
:10392000000000000000000000000000625126932B
:103930000000000000000000000000000000000087
:103940000000000000000000000000000000000077
:103950000000000000000000000000000000000067
:1039600000000000000000000000000000008008CF
:10397000A119C0110012221AC119E008C141079310
:10398000C44900000000000000000000000000002A
:103990000000000000000000000000000000000027
:1039A0000000000000000000000000000000000017
:1039B00000000000000000000000E0086012200B82
:1039C000A744E84CA63C074DC74C8644266C84624D
:1039D000E47B6329000000000000000000000000FC
:1039E00000000000000000000000000000000000D7
:1039F00000000000000000000000000000000000C7
:103A00000000000000000000E0118744453CA013C6
:103A1000A334264DE33C033D254D04558133644AD0
:103A20008010456BE2200000000000000000000054
:103A30000000000000000000000000000000000086
:103A40000000000000000000000000000000000076
:103A5000000000008008600A000364348A5DA2341C
:103A6000A02CA02CC12CE23481342124A33BE339C7
:103A700000006008C66A611000000000000000003D
:103A80000000000000000000000000000000000036
:103A90000000000000000000000000000000000026
:103AA00000004000A63BA84CE11B6124E23CA12C95
:103AB0008024801CA12C4024C00BA63CC44363314D
:103AC000000000008010876A000000000000000075
:103AD00000000000000000000000000000000000E6
:103AE00000000000000000000000000000000000D6
:103AF00000000012E42B6A650345A02CA024801C62
:103B0000601C80242014C00BC0130A5DC653032917
:103B10000000000000004231C54900000000000024
:103B20000000000000000000000000000000000095
:103B30000000000000000000000000000000000085
:103B4000C008E00AC11BE33CC134A124401C801C16
:103B5000401C0014E013C11303240B5D0553C22065
:103B60000000000000000000A76A400800000000FC
:103B70000000000000000000000000000000000045
:103B80000000000000000000000000000000000035
:103B900000120424084DA22C601C601C4014201448
:103BA000411C0214E1132424452C4433455281184E
:103BB0000000000000000000012926520000000063
:103BC00000000000000000000000000000000000F5
:103BD00000000000000000000000000000000000E5
:103BE0000013A8442A55832C20142114411C2114AD
:103BF000431C231C8634453484336000C7620000B4
:103C000000000000000000000000887B00000000B1
:103C100000000000000000000000000000000000A4
:103C20000000000000000000000000000000A008EC
:103C3000C11B242CE21BC00BE00B01140114431C1C
:103C4000231486340C5D453360080000287300009F
:103C500000000000000000000000635A464A000017
:103C6000C320E32800000000000000000000000066
:103C70000000000000000000000000000000601ACA
:103C80004013C00A00138113800BA00BC10BC1139A
:103C9000811BE42AA221000000000000487B0000F4
:103CA00000000000000000000431847106AA66A92B
:103CB00045B966C149C2C7610000000000000000AC
:103CC0000000000000000000000000000000E01004
:103CD0000000000000000000A008C008E008800804
:103CE00000000000000000000000A118276B000089
:103CF0000000000040088679629821A041B041B8D8
:103D000062C042C022B825C1C761000000000000A7
:103D100000000000000000000000000000000000A3
:103D20000000000000000000000000000000000093
:103D3000A2200371039928A2A779445AE76A0000D8
:103D4000000000006569219822A821A841B041C067
:103D5000A3D04DEB8EE363C049C2611000000000A8
:103D60000000000000000000000000000000000053
:103D70000000000000000000000000000000E32838
:103D8000A29041A862B083A886A9869AE79245418D
:103D900061106110E8A142A041A841B041B861C0E2
:103DA000A2C8EFEBF3F409D2C4C0A7590000000089
:103DB0000000000000000000000000000000000003
:103DC000000000000000000000000000000065810D
:103DD000009842A882B883C042B821B062B8E5B862
:103DE000C8B14559A390219821A841B041B841B824
:103DF00041C046D131EC6ADA83B8498A000000003C
:103E000000000000000000000000000000000000B2
:103E1000000000000000000000000000243921889C
:103E200042A821A841B041B861C062C029D26EDB6E
:103E300083B841A00080219842A821A841B041B890
:103E400041C062C0C4C883C026C96A9A000000008D
:103E50000000000000000000000000000000000062
:103E6000000000000000000000000000A659C4A0EF
:103E700083B020A840B041B861C041C009D271EC04
:103E8000E4C821B00080009042A041A841B041B0F8
:103E900041B841B862C0C4C8A7C9498A000000003F
:103EA0000000000000000000000000000000000012
:103EB000000000000000000000000000E76905A10C
:103EC00083A821B040B040B861C041C041C042C0E9
:103ED000C4C841B0007800882198A4A8A4B8A3B8A9
:103EE00062B863C0A4C046C9C8C1C7610000000071
:103EF00000000000000000000000000000000000C2
:103F0000000000000000000000000000A65945A1CC
:103F100083A842A841B041B841B841C062C0E4D0D2
:103F200086D162B0825800786398C4A884A8C4B0CF
:103F3000C4B8E5C005C126C16ABA821800000000F5
:103F40000000000000000000000000000000000071
:103F50000000000000000000000000000439669925
:103F6000C4A083A8A3B863B862B863C004D145D124
:103F700046C183A0000821504288C4A0C4A0C4A8A0
:103F8000C5B0E5B006B1E8B9A659000000000000D0
:103F90000000000000000000000000000000000021
:103FA0000000000000000000000000000000868902
:103FB0000599C4A8C4B0C4B883B8A4C025C946C96B
:103FC00026B942580000000000404280C498E5A095
:103FD00066A9C7B949B28651000000000000000080
:103FE00000000000000000000000000000000000D1
:103FF0000000000000000000000000000000A230EF
:10400000259105A1E5A8C4A8A4B0C4B805B926B1F6
:10401000E488000000000000000000102140A360C0
:104020000461C340411000000000000000000000D7
:104030000000000000000000000000000000000080
:104040000000000000000000000000000000000070
:104050006130C488059905A1E5A005A967A966791D
:104060000000000000000000000000000000000050
:104070000000000000000000000000000000000040
:104080000000000000000000000000000000000030
:104090000000000000000000000000000000000020
:1040A000000000084130A35804712561A2280000D7
:1040B0000000000000000000000000000000000000
:1040C00000000000000000000000000000000000F0
:1040D00000000000000000000000000000000000E0
:1040E00000000000000000000000000000000000D0
:10436000000000000000000000000000C110E33A5F
:10437000034C845C845CE44BA43A610800000000B8
:10438000000000000000000000000000610861085B
:10439000000000000000000000000000000000001D
:1043A000000000000000000000000000000000000D
:1043B000000000000000000000000222434CA44C5A
:1043C00043444344844C4344834C076DA429000078
:1043D0000000000000000119E4638585058EC48596
:1043E000257D244B40080000000000000000000074
:1043F00000000000000000000000000000000000BD
:10440000000000000000000021118554844CC554B8
:10441000A5546444434443446344C554476DA329AD
:1044200000000000233AC485E27DE27DE37DE37D68
:10443000A375C37D257D80080000000000000000FA
:10444000000000000000000000000000000000006C
:104450000000000000000000433BE554A44CC5549C
:10446000C554844CA54C83444344C554E4548764E8
:1044700000002119E48D0286C175E27DE27D04868B
:10448000E37DC37DE385035C0000000000000000C5
:10449000000000000000000000000000000000001C
:1044A00000002232A553044B202B83448444C54C86
:1044B0006344844CA44CA44C844CC44C265D466597
:1044C0000119846C448E2286C175027EE27D037ED2
:1044D00024860486E37D04860000000000000000BE
:1044E0000000000000000000000000000000810843
:1044F000E674278E268625868575413C6344824472
:1045000063446344424463446344C34C05552344B9
:10451000012A248E65962286E175E275C175E27DD9
:10452000027EE17D027EE37DC33A2443E22900005E
:104530000000000000000000000000000000425CDD
:104540000586468E458E037E458EA575C24C8144F8
:10455000A2446244423C213C6244A44CA44C01234A
:104560008243248644862386E17DE175E275E27507
:10457000227EE175E37D846D856D2665266D876CF1
:10458000A11000000000000000000000212AE37DCF
:10459000E27D04862486027E44864486C46D803C87
:1045A000A144C244613C8344634483444344200A9D
:1045B000835C2586037E037E037EE1750276E175CA
:1045C000027EE2758365235DE454C554697589757F
:1045D000A86C000000000000000000006264E37DA1
:1045E000E37D037E037E438644864386237E6465A3
:1045F000A144A144823CA244A244A344C12B000292
:10460000A25C047E0476E375037EE275E275E275D2
:10461000037EC36D435DE254A34CC44C8875676D43
:10462000676D04320000000000000000C37D0386B7
:10463000C2750386037EE275227E227E027E0376A9
:10464000435DA144A144A144A144A244E133200A12
:10465000C25C0376047E047E247EE275E375E27517
:10466000A2658365635DE3548344A34C4665676D2F
:10467000676DC75B0000000000000000A37D03869B
:10468000E27DE27DE275E175027E01760176227EB1
:10469000247E2355813CE14CE14C813C81446012F5
:1046A000A25C04760276247E4486237E0376A36D84
:1046B000645D635D6465245DE454C34C466D887538
:1046C000676D47640000000000000000C26C037EBC
:1046D000047E2386037E027E02760276227E438655
:1046E000237E4586E24CA13C024DA144613CC022A0
:1046F000E254E375E275E275E375037EA36D635DD5
:104700006465435D435D04550455045D676D676DE5
:10471000676D47640000000000000000A13AE37DDF
:104720002486037EE275237E227E227E227E227EE6
:10473000237E447E257E8144E14C024D6034E12A93
:10474000435DE46DE3750376237E8265635D635D9F
:10475000435D235D235D0455E454055D4665876D27
:10476000AA7D4653000000000000000000008264A3
:1047700023862386037E2386027E23860376237E7A
:10478000237E237E45864586803CE144C13C01333F
:10479000435DC36DC26D027EC375625D23550255D4
:1047A000445D445D455D445D255D4565866D876D71
:1047B000887D432100000000000000000000600828
:1047C000225C24864486658E4586247E4486447E0B
:1047D000447E4586457E6686257EC044C03C623B5D
:1047E0008365C165017EA265635D2255235503552E
:1047F000435D23552355035565654665666D87758D
:10480000865B0000000000000000000000000000C7
:104810000000E129E46C468E46864686468646863A
:10482000457E457E457E457E4586057EC044224CBC
:10483000C16D027E815D4155024D034D034D03550F
:104840002355445D2455245D6665876D8675A653A2
:1048500040080000000000000000000000006008A8
:1048600060196011A009001A423B234CC55C2775F2
:10487000476D4875877DA56D0676668E248E216D01
:10488000027E605D214D2155024D024D024D0255C3
:10489000435D2355445D435DE464C453C329000074
:1048A0000000000000000000000000008332C55C32
:1048B000E454834C0134C12B01340134423C623C4A
:1048C000623CA244A44C8554A6644675E695858D49
:1048D000416D814C614CA14CC14CE14CE14CE14C2F
:1048E000C04C0155015D0254C231000000000000BF
:1048F00000000000000000000000C33A055D2665CE
:10490000055DE454034DE24CC244E24CE24CE24CFF
:10491000024DE24C224D42558265659686A6C485BD
:104920000386415D2155004D014D205521552155EE
:10493000215521552155816DC175A37401190000C0
:104940000000000000000000E110E65C065D265D4E
:10495000265D045524552455035543554355635D41
:10496000625D625D8365C26D2486E375456D845C1E
:104970002686037E615D215521552155625D615D6D
:10498000616561656165616DA2758175837D83294E
:1049900000000000000000006332065D265D255D1A
:1049A000255D2555255DE35424552355635D635DE1
:1049B000625D8265E4750276A265425D8454244C92
:1049C000E7754686037E415D425D4155615D6165E7
:1049D00080658065816DA175A275E385C37D658560
:1049E00081100000000000004343075D065D05558F
:1049F000255D255D245D2355435D4255425D8265FD
:104A0000625DE375C26DA265625D425D4354C3435E
:104A1000A66DE56D457EE375215D415D616581654E
:104A2000806580658065806DA175C37DC37DC27D15
:104A300024530000000000006443075DE654055560
:104A40000555445D445D2355635D635D635D83652A
:104A5000E375C26D8165A165415D415D034C034411
:104A6000A66DA56D0576257EE27521552055405D24
:104A7000806580656065806D6165A275C37DA17587
:104A8000A574000000000000C33A065D265DE454F2
:104A90000355245523554355445D635D635DA2650D
:104AA000A265A16581658165415D0155A14303440E
:104AB000A66D645DA465C46D247EC275415D415DD3
:104AC00061656065806DA06DC175816DA27DA17D00
:104AD000C57C00000000000021190765065D055532
:104AE000045524552355645D635D6365415D615DD7
:104AF000C16DA0658165816D6165C04C0033034463
:104B00008665645D8565645DA46D057EA36D215D2C
:104B1000415D60658065A16DC275E37DC37DC37D28
:104B2000246C0000000000000000A4434765255DE0
:104B30000455E354645D6465A36582654155405541
:104B4000A16DA16D816D816D205DA04C0033A554D8
:104B5000655D655D645D435D835DC56DE46DA36DFD
:104B6000225D61656165A27504860486E485C3855E
:104B7000E44A000000000000000080086454245D46
:104B8000645D435D6465A46DC26DA165615D605D3A
:104B90008065C275A16DA16D215DE054E12A845448
:104BA00065656665245D445D635D84656465E57582
:104BB000A46D235D4265626DA275E37DC47D64854D
:104BC0006008000000000000000000008008223B98
:104BD000C45CC464846DE27DE27D8065605D816D4E
:104BE0008065A16DE37DC375826D226D8022A45422
:104BF0004565455D245D2455445D84656465846533
:104C00000676A575C254015D826DA3756375C231C8
:104C10000000000000000000000000000000000094
:104C20000000634B0486E37D027EA06D6065816DAC
:104C3000A16D816DC275C37561654464202B4454B8
:104C400046656665245D2455445D445D8665445D26
:104C5000A56D067E856D614CC15CA243E01000002D
:104C60000000000000000000000000000000000044
:104C70000000424303862486027EE2756165806DF2
:104C8000A26D806D616DC275C37D4232A03BC232A0
:104C900046656665455D04552455455D8565455DFC
:104CA000455DA67527860232000000000000000066
:104CB00000000000000000000000000000000000F4
:104CC00000002119C37523862486C1758065806D17
:104CD000816DA16D816DE37D85532022A043401934
:104CE000466D4665455D0455E34C25556665866D04
:104CF000455D45650786C4420000000000000000D5
:104D000000000000000000000000000000000000A3
:104D1000000000006132C27DE485E375A175A16DDC
:104D2000816D616D6165634B6008A0434032000096
:104D300044544665466504550555255D255D245D4D
:104D40000455255DA77DE21800000000000000006A
:104D50000000000000000000000000000000000053
:104D6000000000000000E01002436254626D4165E3
:104D7000E264824B8121000060198054C010000061
:104D80000011065D4665255D255D46654565466500
:104D90004665266D243A0000000000000000000077
:104DA0000000000000000000000000000000000003
:104DB0000000000000000000000000006008400843
:104DC00000000000000000008043C04B0000000015
:104DD00000000011044C2665676D876D676D466D98
:104DE000644BC11000000000000000000000000043
:104DF00000000000000000000000000000000000B3
:104E000000000000000000000000000000000000A2
:104E1000000000000000A129016DA0210000000099
:104E20000000000000000111022A6432E329810819
:104E30000000000000000000000000000000000072
:104E40000000000000000000000000000000000062
:104E50000000000000000000000000000000000052
:104E6000000000000000656C80640000000000008D
:104E70000000000000000000000000000000000032
:104E80000000000000000000000000000000000022
:104E90000000000000000000000000000000000012
:104EA0000000000000000000000000000000000002
:104EB0000000000061298795413A000000000000D1
:104EC00000000000000000000000000000000000E2
:104ED00000000000000000000000000000000000D2
:104EE00000000000000000000000000000000000C2
:104EF00000000000000000000000000000000000B2
:104F0000000000002019A16B8008000000000000D4
:104F10000000000000000000000000000000000091
:104F20000000000000000000000000000000000081
:104F30000000000000000000000000000000000071
:104F40000000000000000000000000000000000061
:105170000000000000000000000000006C2A2F3337
:105180004F2BB03352445244313C513C513C513C82
:10519000313C313C5244324490334F2B0F336B2A15
:1051A00000000000000000000000000000000000FF
:1051B00000000000000000000000000000000000EF
:1051C00000000000000000000000CE2A964C963C33
:1051D0009634B94DBC66BC5E9B56BB5EBC5EBC5E85
:1051E000BB5E9B5EBC66BC66994D9634963C76442D
:1051F000AD2A0000000000000000000000000000D8
:10520000000000000000000000000000000000009E
:105210000000000000000000EE2A7644563C1524F1
:10522000351C79255B365A2E3A2E5A2E5A2E5A2E76
:105230005A2E5A2E7B365B36792D351C3524763422
:10524000553CCD2A000000000000000000000000D6
:10525000000000000000000000000000000000004E
:10526000000000000000AD22763C973C3524351C40
:10527000961C1A265B2E7B2E5A265A265A267A26EA
:105280007B269B2E7B2E5B361B2EB71C361C3524B3
:10529000963C763CAD2200000000000000000000BB
:1052A00000000000000000000000000000000000FE
:1052B00000000000CD2A553C563456247624761C36
:1052C000DA2D5C367B2E9B269B269B269B269B26D7
:1052D0009B269C269C2E5C2E3C2EBA2D771C962459
:1052E0007624562C553CCE2A000000000000000019
:1052F00000000000000000000000000000000000AE
:105300000000CD2A9644B73C5624551C971C1925FD
:105310007D3E9D3E7C2E9C269C269B269B269B2686
:105320009C269C2E7C2E7C2E7C365C3E192D971C58
:10533000561C562CB73CB644CD220000000000009D
:10534000000000000000000000000000000000005D
:10535000CD2A96447634772C972C761C7614DB2D48
:105360007C3E7C3E7B2E9B269C269C2E9C2E9B2648
:105370009C2E9C2E7C2E7C2E7D3E5C3EDB35761456
:10538000761C972C762C963C9644CD2A0000000083
:1053900000000000000000000000000000008C225F
:1053A000963C963C3524561C971C76149614BA25C8
:1053B0005C365B363A267B267B267B267B267B2645
:1053C0009B267B2E5B263B2E5C363C36BA2D760C1C
:1053D0007614771C5624562CB73C763C8C22000061
:1053E0000000000000000000000000006C221434E7
:1053F000552C762C761C961CB714B60CB60CBA2518
:105400003B363B363A2E3A2E5A2E5A2E5A2E5A2ECA
:105410005A2E5B2E3A2E3B2E3B363B36BA25960C47
:1054200096149714761C9624762C553414346C1AE2
:10543000000000000000000000000922174D174581
:10544000B62CB724F724181D181DF714F7141B3EAB
:105450009C4E9C4E9B4E9B4EBC4EBC4EBB4E9B4EA0
:105460009C4EBC4E9C4E9C4E9C4E9C4E1B3EF7143C
:10547000F714F71CF81CD724B624B634174D17556B
:105480004A2200000000000000004100375DBD6EB0
:105490003B4ED92D5B365B365B2E1A2EF92D1D7FC8
:1054A000FFC7FFCFFFCFFFCFFFD7FFD7FFD7FFD774
:1054B000FFD7FFD7FFCFFFC7FFC7FFBF1D7F1A2E44
:1054C0001B2E5B365C363B36B9353B56BD76365DBA
:1054D0004100000000000000000000006100364DA7
:1054E0009C56BC4E5B365B2E7B363A361936BC5E1C
:1054F000FFD7FFDFFFD7FFDFFFE7FFE7FFE7FFE7AC
:10550000FFE7FFE7FFDFFFD7FFD7FFCF9C5E1A362D
:105510003A365B365B365B3E9C567C5E164D6100D0
:10552000000000000000000000000000000061001A
:10553000774DDD5E7A3E3A365A36192E193E9B4E2D
:10554000BEB7FFD7FFD7FFDFFFE7FFE7FFEFFFE7BC
:10555000FFE7FFE7FFDFFFD7FFD79EAF7B46193698
:105560001A2E5A363A365B3EDD5E574D610000001A
:10557000000000000000000000000000000000002B
:10558000610056459B4E9B3E3A36192E7A3E9B460D
:10559000FC76DFCFDFD7FFDFFFE7FFEFFFEFFFEFA7
:1055A000FFE7FFE7FFE7FFD7DFC7FC6E7B465A3612
:1055B000F92D5A3E7B469B4E574562000000000085
:1055C00000000000000000000000000000000000DB
:1055D000000082009745BC4E5A3E5A3E7B3E5A3EE2
:1055E000D8359EBFFFDFFFE7FFE7FFEFFFEFFFEFDD
:1055F000FFE7FFDFFFE7FFDFBEBFD83D5A3E7A3E41
:105600003A3E5A46DC56974D8200000000000000EA
:10561000000000000000000000000000000000008A
:105620000000000082009745BC56BC4E5A3ED82D63
:10563000F835FC8EFFE7FFE7FFE7FFEFFFEFFFEF37
:10564000FFE7FFDFFFE7FFE71C8FF835D82D5A3E55
:10565000BB4EBC56B84DA208000000000000000080
:10566000000000000000000000000000000000003A
:10567000000000000000A208F955BC561936183683
:105680005A467B66FFDFFFDFFFDFFFE7FFEFFFE745
:10569000FFE7FFDFFFDFFFE77B5E3A46F935193EA4
:1056A000DC5ED855A20800000000000000000000E9
:1056B00000000000000000000000000000000000EA
:1056C0000000000000000000A20897459B567A4E9B
:1056D000394E194E1D9FDFCFFFDFFFE7FFE7FFE7E2
:1056E000FFE7FFDFDFD71DA7F94D194E9B4EBB56D5
:1056F000B74DA308000000000000000000000000FB
:105700000000000000000000000000000000000099
:1057100000000000000000000000C308F8559B5E78
:10572000394ED84DF965DFCFFFDFFFE7FFDFFFDF41
:10573000FFE7FFDFDFC7F95DB84D194EBC5EF955D5
:10574000C30800000000000000000000000000008E
:105750000000000000000000000000000000000049
:10576000000000000000000000000000C308D85541
:105770009A66185EB74D7EB7FFDFFFDFDFD7DFDF4A
:10578000FFDFFFDF7EB7974DF95D7B66D855C30815
:105790000000000000000000000000000000000009
:1057A00000000000000000000000000000000000F9
:1057B0000000000000000000000000000000E308FE
:1057C000F85D39661966FC96FFD7FFDFFFDFFFDF64
:1057D000FFD7FFD7FC9619663A66D865E308000044
:1057E00000000000000000000000000000000000B9
:1057F00000000000000000000000000000000000A9
:105800000000000000000000000000000000000098
:10581000E308975D9B767B765DB7BFCFFFE7FFE739
:10582000DFCF7DB79B769B76975DE4080000000094
:105830000000000000000000000000000000000068
:105840000000000000000000000000000000000058
:105850000000000000000000000000000000000048
:1058600000000411D965F9657B86BFCFFFEFFFE724
:10587000BFC79B861966F865041100000000000090
:105880000000000000000000000000000000000018
:105890000000000000000000000000000000000008
:1058A00000000000000000000000000000000000F8
:1058B00000000000E408775D5A7EDFD7DFE7FFE7EE
:1058C000DFD75A7E775D0409000000000000000069
:1058D00000000000000000000000000000000000C8
:1058E00000000000000000000000000000000000B8
:1058F00000000000000000000000000000000000A8
:105900000000000000000411197E7ED7FFFFFFFF9A
:105910007ECFF97524110000000000000000000097
:105920000000000000000000000000000000000077
:105930000000000000000000000000000000000067
:105940000000000000000000000000000000000057
:1059500000000000000000002519BBB6FFFFFFFF9C
:10596000BBAE451900000000000000000000000070
:105970000000000000000000000000000000000027
:105980000000000000000000000000000000000017
:105990000000000000000000000000000000000007
:1059A0000000000000000000000065295DEF5DEFD1
:1059B0006521000000000000000000000000000061
:1059C00000000000000000000000000000000000D7
:1059D00000000000000000000000000000000000C7
:1059E00000000000000000000000000000000000B7
:1059F0000000000000000000000000008631863139
:105A00000000000000000000000000000000000096
:105A10000000000000000000000000000000000086
:105A20000000000000000000000000000000000076
:105A30000000000000000000000000000000000066
:105EA00000004008000000000000000000000000AA
:105EB00000000000000000000000000000000000E2
:105EC00000000000000000000000000000000000D2
:105ED00000000000000000000000000000000000C2
:105EE00000000000000000000000000000000000B2
:105EF0008110A9948A9CAEBDE4410000000000001E
:105F00000000000000000000000000000000000091
:105F10000000000000000000000000000000000081
:105F20000000000000000000000000000000000071
:105F30000000000000000000000000000000000061
:105F40000000E45A4CC632EFC9C5034200000121EB
:105F500041310121000000000000000000000000AD
:105F60000000000000000000000000000000000031
:105F70000000000000000000000000000000000021
:105F80000000000000000000000000000000000011
:105F90000019415BE17B45CE2AF70AF7A7F6C9FE57
:105FA000A9FECAFECAFEEADD07942229000000000D
:105FB00000000000000000000000000000000000E1
:105FC00000000000000000000000000000000000D1
:105FD0000000000000000000000000000000E221BE
:105FE000E34B204BA09C64CE28EF28F709FFEAFE84
:105FF000E9FEC9FECAFEECFE0EFFEDFE457B000089
:106000000000000000000000000000000000000090
:106010000000000000000000000000000000000080
:1060200000000000000000000000E0104333E43BEB
:106030000244214460ADC5DE07EFA2E682EEC3F65E
:10604000C4FEA5FE84FE64F666F6ECFE0CFF48C5B1
:1060500081100000000000000000000000000000AF
:106060000000000000000000000000000000000030
:106070000000000000000000422A812BC433444C81
:106080004144013C609DC4DE07EFA2E681EEA3F629
:10609000A3FEA3FE82F683F663F687FE0DFFECFEF9
:1060A00087D5A118000000000000000000000000DB
:1060B00000000000000000000000000000000000E0
:1060C0000000000000002743695426444744624C06
:1060D0004044213C409DE5DE48EFE4EE81EEA2F62F
:1060E000C3FEC3FEC3FEC4FEA4FEA4FE85FECBFE1B
:1060F000EDFE88D540080000000000000000000010
:10610000000000000000000000000000000000008F
:10611000000000008332484C684C874C874C603C40
:10612000403C203C409DC4DE49EF05F781EE81F6FE
:10613000A2F6C4FEE5FEC5FEC5FEA4FE63F665FE3E
:10614000ECFECCFEC58B000000000000000000004B
:10615000000000000000000000000000000000003F
:106160000000C32169542744253C663CA54C403CB3
:10617000603C203C40A5A4DE27F7E5F660EE40EE4B
:1061800040F6A3FEC6FEE8FEE9FEA5FE82FE83F60B
:1061900066F6CCFECBFE42290000000000000000A5
:1061A00000000000000000000000000000000000EF
:1061B0004000084C484C253C033466448244603C13
:1061C000603C604480BDA4E607F7E4F661F660F643
:1061D00060F6A2FEC5FEE8FEEAFEC6FEA4FEA4FE30
:1061E00063F6C9FE2FFF87AC00000000000000002E
:1061F000000000000000000000000000000000009F
:106200000122063C463C04342334874C4034603C35
:106210008044C164C0CD63E6A4F6A3F6A2FE83FE6B
:1062200082FEA2FE83FEC8FEE8FEE7FEC5FEC5FEB6
:10623000A4FEC7FE0BFF68F6400800000000000047
:10624000000000000000000000000000000000004E
:106250006533263C453C663C8744A54C20342034BD
:106260008044E17CE0D542EE83F683F6A3FEA3FEF4
:10627000A4FEA3FE61F643F6A6FEE9FEE8FEC6FE16
:1062800084FEA5FEECFE87FEE2490000000000004F
:106290000000000000000000000000000000A10855
:1062A0002744263C2534653CC854423C20342034E5
:1062B000603C019DA0D501E642F663F662F682F6E7
:1062C000A5FE84FE41F600EE63F6C7FEC8FEA4FEFE
:1062D00082FEA6FEEBFE65FE648300000000000067
:1062E0000000000000000000000000000000C321CA
:1062F000263C04342434A84CCA5C42342134413452
:10630000614C02BD20CD40D5C1E522F620F620F635
:1063100083FEA5FE83FE62F682FE85FE62F662FEC5
:1063200083FEC6FEC8FE46F6259C00000000000065
:106330000000000000000000000000000000A219A2
:10634000263C2534E32B2534664443344234423C16
:10635000E48424C502CDC0CC60E5E1F5E0F5E0F5CC
:1063600041F663FE83FE83FEA4FE83FE41F641F602
:1063700064FE84FE87FE24F626A4000000000000D0
:106380000000000000000000000000000000C2212A
:106390002644263C2434663C443C4334633C423C23
:1063A000E68367CD24D5C2D462E5E3F5E1F5C0F517
:1063B000E0ED21F641F662FE82FE62FE41F600F655
:1063C000C0EDE1ED25F605F6658300000000000054
:1063D0000000000000000000000000000000421962
:1063E000884C6744674467442434643C443C812AB5
:1063F000A11849C568DD23DD63E5E4F5E2F5E1F5C3
:10640000C0F5C0F5E0F520F600F621F620F6E0ED47
:1064100060E560E505F606F6645A0000000000003D
:106420000000000000000000000000000000A110BB
:10643000684C674487446844453CC74C664CE01050
:106440000000635A27CDA9DD86E563E5A3EDE3F5FA
:10645000E2F5A0F5E0F5C0ED80ED60E5C0EDE0F51A
:1064600080EDA0ED46FE06F60229000000000000C7
:10647000000000000000000000000000000000001C
:10648000833304340534263C6744E854C543000094
:1064900000000000648B68DD68DD24DD64E5E5F55F
:1064A000E4F5C2F5E1F5C0ED60E520E5C0EDE1F50C
:1064B000E1F523FE67FE05F6C118000000000000AC
:1064C00000000000000000000000000000000000CC
:1064D0004122A22BC32BE4336744A85422190000A5
:1064E000000000000000849348DD88E566E564E56F
:1064F000A4EDC4EDE3F5E2F5C1F5A1EDA2EDA2ED49
:10650000C1F502F625FEE4F566AC000000000000CF
:10651000000000000000000000000000000000007B
:10652000A008C233E433053C4644632A000000005F
:106530000000000000000000E37A48DD68E525E582
:1065400086E5A6EDC5EDC4EDE4F5E4F5C2F5C2F5CA
:10655000E3F503F6E3F547FE69FE23520000000071
:10656000000000000000000000000000000000002B
:106570000000422AE4332644475440000000000053
:1065800000000000000000000000E251E7CC89E5B7
:10659000A9EDA8EDA7EDA7EDA6EDC6ED07F625FE42
:1065A00003F6E2F5C4ED49FE6CFE87B4000000007E
:1065B00000000000000000000000000000000000DB
:1065C00000000000233B474C042A000000000000AC
:1065D0000000000000000000000000006010C47A0D
:1065E000C7CC48DD67E567E546E546E587E5C6EDE6
:1065F000E4F5E2F504F648FE6AFE07C50000000077
:10660000000000000000000000000000000000008A
:10661000000000008008854B000000000000000022
:10662000000000000000000000000000000000006A
:1066300000000029A1490162206280416139C272D3
:1066400065DD05F625F646F648F68683000000006F
:10665000000000000000000000000000000000003A
:10666000000000000000000000000000000000002A
:10667000000000000000000000000000000000001A
:10668000000000000000000000000000000000000A
:10669000E020849326CDA7DD66834008000000003B
:1066A00000000000000000000000000000000000EA
:1066B00000000000000000000000000000000000DA
:1066C00000000000000000000000000000000000CA
:1066D00000000000000000000000000000000000BA
:106AC000000000004010E038E038E038E038E038FE
:106AD000E038E038E038E038E038E038E038E038F6
:106AE000E038E0380039E0380039E038E038E038A4
:106AF000E038E038E03840100000000000000000FE
